{
  "_format": "hh-sol-artifact-1",
  "contractName": "Comp",
  "sourceName": "contracts/Comp.sol",
  "abi": [
    {
      "inputs": [
        {
          "internalType": "address",
          "name": "account",
          "type": "address"
        }
      ],
      "stateMutability": "nonpayable",
      "type": "constructor"
    },
    {
      "anonymous": false,
      "inputs": [
        {
          "indexed": true,
          "internalType": "address",
          "name": "owner",
          "type": "address"
        },
        {
          "indexed": true,
          "internalType": "address",
          "name": "spender",
          "type": "address"
        },
        {
          "indexed": false,
          "internalType": "uint256",
          "name": "amount",
          "type": "uint256"
        }
      ],
      "name": "Approval",
      "type": "event"
    },
    {
      "anonymous": false,
      "inputs": [
        {
          "indexed": true,
          "internalType": "address",
          "name": "delegator",
          "type": "address"
        },
        {
          "indexed": true,
          "internalType": "address",
          "name": "fromDelegate",
          "type": "address"
        },
        {
          "indexed": true,
          "internalType": "address",
          "name": "toDelegate",
          "type": "address"
        }
      ],
      "name": "DelegateChanged",
      "type": "event"
    },
    {
      "anonymous": false,
      "inputs": [
        {
          "indexed": true,
          "internalType": "address",
          "name": "delegate",
          "type": "address"
        },
        {
          "indexed": false,
          "internalType": "uint256",
          "name": "previousBalance",
          "type": "uint256"
        },
        {
          "indexed": false,
          "internalType": "uint256",
          "name": "newBalance",
          "type": "uint256"
        }
      ],
      "name": "DelegateVotesChanged",
      "type": "event"
    },
    {
      "anonymous": false,
      "inputs": [
        {
          "indexed": true,
          "internalType": "address",
          "name": "from",
          "type": "address"
        },
        {
          "indexed": true,
          "internalType": "address",
          "name": "to",
          "type": "address"
        },
        {
          "indexed": false,
          "internalType": "uint256",
          "name": "amount",
          "type": "uint256"
        }
      ],
      "name": "Transfer",
      "type": "event"
    },
    {
      "inputs": [],
      "name": "DELEGATION_TYPEHASH",
      "outputs": [
        {
          "internalType": "bytes32",
          "name": "",
          "type": "bytes32"
        }
      ],
      "stateMutability": "view",
      "type": "function"
    },
    {
      "inputs": [],
      "name": "DOMAIN_TYPEHASH",
      "outputs": [
        {
          "internalType": "bytes32",
          "name": "",
          "type": "bytes32"
        }
      ],
      "stateMutability": "view",
      "type": "function"
    },
    {
      "inputs": [
        {
          "internalType": "address",
          "name": "account",
          "type": "address"
        },
        {
          "internalType": "address",
          "name": "spender",
          "type": "address"
        }
      ],
      "name": "allowance",
      "outputs": [
        {
          "internalType": "uint256",
          "name": "",
          "type": "uint256"
        }
      ],
      "stateMutability": "view",
      "type": "function"
    },
    {
      "inputs": [
        {
          "internalType": "address",
          "name": "spender",
          "type": "address"
        },
        {
          "internalType": "uint256",
          "name": "rawAmount",
          "type": "uint256"
        }
      ],
      "name": "approve",
      "outputs": [
        {
          "internalType": "bool",
          "name": "",
          "type": "bool"
        }
      ],
      "stateMutability": "nonpayable",
      "type": "function"
    },
    {
      "inputs": [
        {
          "internalType": "address",
          "name": "account",
          "type": "address"
        }
      ],
      "name": "balanceOf",
      "outputs": [
        {
          "internalType": "uint256",
          "name": "",
          "type": "uint256"
        }
      ],
      "stateMutability": "view",
      "type": "function"
    },
    {
      "inputs": [
        {
          "internalType": "address",
          "name": "",
          "type": "address"
        },
        {
          "internalType": "uint32",
          "name": "",
          "type": "uint32"
        }
      ],
      "name": "checkpoints",
      "outputs": [
        {
          "internalType": "uint32",
          "name": "fromBlock",
          "type": "uint32"
        },
        {
          "internalType": "uint96",
          "name": "votes",
          "type": "uint96"
        }
      ],
      "stateMutability": "view",
      "type": "function"
    },
    {
      "inputs": [],
      "name": "decimals",
      "outputs": [
        {
          "internalType": "uint8",
          "name": "",
          "type": "uint8"
        }
      ],
      "stateMutability": "view",
      "type": "function"
    },
    {
      "inputs": [
        {
          "internalType": "address",
          "name": "delegatee",
          "type": "address"
        }
      ],
      "name": "delegate",
      "outputs": [],
      "stateMutability": "nonpayable",
      "type": "function"
    },
    {
      "inputs": [
        {
          "internalType": "address",
          "name": "delegatee",
          "type": "address"
        },
        {
          "internalType": "uint256",
          "name": "nonce",
          "type": "uint256"
        },
        {
          "internalType": "uint256",
          "name": "expiry",
          "type": "uint256"
        },
        {
          "internalType": "uint8",
          "name": "v",
          "type": "uint8"
        },
        {
          "internalType": "bytes32",
          "name": "r",
          "type": "bytes32"
        },
        {
          "internalType": "bytes32",
          "name": "s",
          "type": "bytes32"
        }
      ],
      "name": "delegateBySig",
      "outputs": [],
      "stateMutability": "nonpayable",
      "type": "function"
    },
    {
      "inputs": [
        {
          "internalType": "address",
          "name": "",
          "type": "address"
        }
      ],
      "name": "delegates",
      "outputs": [
        {
          "internalType": "address",
          "name": "",
          "type": "address"
        }
      ],
      "stateMutability": "view",
      "type": "function"
    },
    {
      "inputs": [
        {
          "internalType": "address",
          "name": "account",
          "type": "address"
        }
      ],
      "name": "getCurrentVotes",
      "outputs": [
        {
          "internalType": "uint96",
          "name": "",
          "type": "uint96"
        }
      ],
      "stateMutability": "view",
      "type": "function"
    },
    {
      "inputs": [
        {
          "internalType": "address",
          "name": "account",
          "type": "address"
        },
        {
          "internalType": "uint256",
          "name": "blockNumber",
          "type": "uint256"
        }
      ],
      "name": "getPriorVotes",
      "outputs": [
        {
          "internalType": "uint96",
          "name": "",
          "type": "uint96"
        }
      ],
      "stateMutability": "view",
      "type": "function"
    },
    {
      "inputs": [],
      "name": "name",
      "outputs": [
        {
          "internalType": "string",
          "name": "",
          "type": "string"
        }
      ],
      "stateMutability": "view",
      "type": "function"
    },
    {
      "inputs": [
        {
          "internalType": "address",
          "name": "",
          "type": "address"
        }
      ],
      "name": "nonces",
      "outputs": [
        {
          "internalType": "uint256",
          "name": "",
          "type": "uint256"
        }
      ],
      "stateMutability": "view",
      "type": "function"
    },
    {
      "inputs": [
        {
          "internalType": "address",
          "name": "",
          "type": "address"
        }
      ],
      "name": "numCheckpoints",
      "outputs": [
        {
          "internalType": "uint32",
          "name": "",
          "type": "uint32"
        }
      ],
      "stateMutability": "view",
      "type": "function"
    },
    {
      "inputs": [],
      "name": "symbol",
      "outputs": [
        {
          "internalType": "string",
          "name": "",
          "type": "string"
        }
      ],
      "stateMutability": "view",
      "type": "function"
    },
    {
      "inputs": [],
      "name": "totalSupply",
      "outputs": [
        {
          "internalType": "uint256",
          "name": "",
          "type": "uint256"
        }
      ],
      "stateMutability": "view",
      "type": "function"
    },
    {
      "inputs": [
        {
          "internalType": "address",
          "name": "dst",
          "type": "address"
        },
        {
          "internalType": "uint256",
          "name": "rawAmount",
          "type": "uint256"
        }
      ],
      "name": "transfer",
      "outputs": [
        {
          "internalType": "bool",
          "name": "",
          "type": "bool"
        }
      ],
      "stateMutability": "nonpayable",
      "type": "function"
    },
    {
      "inputs": [
        {
          "internalType": "address",
          "name": "src",
          "type": "address"
        },
        {
          "internalType": "address",
          "name": "dst",
          "type": "address"
        },
        {
          "internalType": "uint256",
          "name": "rawAmount",
          "type": "uint256"
        }
      ],
      "name": "transferFrom",
      "outputs": [
        {
          "internalType": "bool",
          "name": "",
          "type": "bool"
        }
      ],
      "stateMutability": "nonpayable",
      "type": "function"
    }
  ],
  "bytecode": "0x60806040523480156200001157600080fd5b5060405162002066380380620020668339810160408190526200003491620000a9565b6001600160a01b03811660008181526001602052604080822080546001600160601b0319166a084595161401484a00000090811790915590517fddf252ad1be2c89b69c2b068fc378daa952ba7f163c4a11628f55a4df523b3ef916200009a91620000d9565b60405180910390a350620000e2565b600060208284031215620000bb578081fd5b81516001600160a01b0381168114620000d2578182fd5b9392505050565b90815260200190565b611f7480620000f26000396000f3fe608060405234801561001057600080fd5b50600436106101515760003560e01c806370a08231116100cd578063b4b5ea5711610081578063dd62ed3e11610066578063dd62ed3e146102b5578063e7a324dc146102c8578063f1127ed8146102d057610151565b8063b4b5ea571461028f578063c3cda520146102a257610151565b80637ecebe00116100b25780637ecebe001461026157806395d89b4114610274578063a9059cbb1461027c57610151565b806370a082311461022e578063782d6fe11461024157610151565b806323b872dd11610124578063587cde1e11610109578063587cde1e146101d95780635c19a95c146101f95780636fcfff451461020e57610151565b806323b872dd146101b1578063313ce567146101c457610151565b806306fdde0314610156578063095ea7b31461017457806318160ddd1461019457806320606b70146101a9575b600080fd5b61015e6102f1565b60405161016b9190611993565b60405180910390f35b6101876101823660046117e3565b61032a565b60405161016b91906118ff565b61019c61044d565b60405161016b919061190a565b61019c61045c565b6101876101bf3660046117a8565b610480565b6101cc61061e565b60405161016b9190611c67565b6101ec6101e736600461175c565b610623565b60405161016b91906118de565b61020c61020736600461175c565b61064b565b005b61022161021c36600461175c565b610658565b60405161016b9190611c32565b61019c61023c36600461175c565b610670565b61025461024f3660046117e3565b6106aa565b60405161016b9190611c75565b61019c61026f36600461175c565b610974565b61015e610986565b61018761028a3660046117e3565b6109bf565b61025461029d36600461175c565b6109fb565b61020c6102b036600461180c565b610a99565b61019c6102c3366004611776565b610d41565b61019c610d85565b6102e36102de36600461186a565b610da9565b60405161016b929190611c43565b6040518060400160405280600881526020017f436f6d706f756e6400000000000000000000000000000000000000000000000081525081565b6000807fffffffffffffffffffffffffffffffffffffffffffffffffffffffffffffffff83141561037c57507fffffffffffffffffffffffffffffffffffffffffffffffffffffffffffffffff6103a1565b61039e83604051806060016040528060258152602001611e2d60259139610de4565b90505b3360008181526020818152604080832073ffffffffffffffffffffffffffffffffffffffff891680855292529182902080547fffffffffffffffffffffffffffffffffffffffff000000000000000000000000166bffffffffffffffffffffffff861617905590519091907f8c5be1e5ebec7d5bd14f71427d1e84f3dd0314c0f7b2291e5b200ac8c7c3b92590610439908590611c75565b60405180910390a360019150505b92915050565b6a084595161401484a00000081565b7f8cad95687ba82c2ce50e74f7b754645e5117c3a5bec8151c0726d5857980a86681565b73ffffffffffffffffffffffffffffffffffffffff83166000908152602081815260408083203380855290835281842054825160608101909352602580845291936bffffffffffffffffffffffff9091169285926104e89288929190611e2d90830139610de4565b90508673ffffffffffffffffffffffffffffffffffffffff168373ffffffffffffffffffffffffffffffffffffffff161415801561053457506bffffffffffffffffffffffff82811614155b1561060657600061055e83836040518060600160405280603d8152602001611f04603d9139610e36565b73ffffffffffffffffffffffffffffffffffffffff898116600081815260208181526040808320948a16808452949091529081902080547fffffffffffffffffffffffffffffffffffffffff000000000000000000000000166bffffffffffffffffffffffff86161790555192935090917f8c5be1e5ebec7d5bd14f71427d1e84f3dd0314c0f7b2291e5b200ac8c7c3b925906105fc908590611c75565b60405180910390a3505b610611878783610ea4565b5060019695505050505050565b601281565b60026020526000908152604090205473ffffffffffffffffffffffffffffffffffffffff1681565b6106553382611110565b50565b60046020526000908152604090205463ffffffff1681565b73ffffffffffffffffffffffffffffffffffffffff81166000908152600160205260409020546bffffffffffffffffffffffff165b919050565b60004382106106ee576040517f08c379a00000000000000000000000000000000000000000000000000000000081526004016106e590611abe565b60405180910390fd5b73ffffffffffffffffffffffffffffffffffffffff831660009081526004602052604090205463ffffffff1680610729576000915050610447565b73ffffffffffffffffffffffffffffffffffffffff84166000908152600360205260408120849161075b600185611d44565b63ffffffff908116825260208201929092526040016000205416116107e15773ffffffffffffffffffffffffffffffffffffffff84166000908152600360205260408120906107ab600184611d44565b63ffffffff16815260208101919091526040016000205464010000000090046bffffffffffffffffffffffff1691506104479050565b73ffffffffffffffffffffffffffffffffffffffff8416600090815260036020908152604080832083805290915290205463ffffffff16831015610829576000915050610447565b600080610837600184611d44565b90505b8163ffffffff168163ffffffff16111561091c576000600261085c8484611d44565b6108669190611cfc565b6108709083611d44565b73ffffffffffffffffffffffffffffffffffffffff8816600090815260036020908152604080832063ffffffff8581168552908352928190208151808301909252549283168082526401000000009093046bffffffffffffffffffffffff16918101919091529192508714156108f0576020015194506104479350505050565b805163ffffffff1687111561090757819350610915565b610912600183611d44565b92505b505061083a565b5073ffffffffffffffffffffffffffffffffffffffff8516600090815260036020908152604080832063ffffffff909416835292905220546bffffffffffffffffffffffff6401000000009091041691505092915050565b60056020526000908152604090205481565b6040518060400160405280600481526020017f434f4d500000000000000000000000000000000000000000000000000000000081525081565b6000806109e483604051806060016040528060268152602001611e5260269139610de4565b90506109f1338583610ea4565b5060019392505050565b73ffffffffffffffffffffffffffffffffffffffff811660009081526004602052604081205463ffffffff1680610a33576000610a92565b73ffffffffffffffffffffffffffffffffffffffff8316600090815260036020526040812090610a64600184611d44565b63ffffffff16815260208101919091526040016000205464010000000090046bffffffffffffffffffffffff165b9392505050565b60408051808201909152600881527f436f6d706f756e6400000000000000000000000000000000000000000000000060209091015260007f8cad95687ba82c2ce50e74f7b754645e5117c3a5bec8151c0726d5857980a8667f561ca898cce9f021c15a441ef41899706e923541cee724530075d1a1144761c7610b1a6111c4565b30604051602001610b2e9493929190611944565b60405160208183030381529060405280519060200120905060007fe48329057bfd03d55e49b547132e39cffd9c1820ad7b9d4c5307691425d15adf888888604051602001610b7f9493929190611913565b60405160208183030381529060405280519060200120905060008282604051602001610bac9291906118a8565b604051602081830303815290604052805190602001209050600060018288888860405160008152602001604052604051610be99493929190611975565b6020604051602081039080840390855afa158015610c0b573d6000803e3d6000fd5b50506040517fffffffffffffffffffffffffffffffffffffffffffffffffffffffffffffffe0015191505073ffffffffffffffffffffffffffffffffffffffff8116610c83576040517f08c379a00000000000000000000000000000000000000000000000000000000081526004016106e590611a04565b73ffffffffffffffffffffffffffffffffffffffff81166000908152600560205260408120805491610cb483611d8e565b919050558914610cf0576040517f08c379a00000000000000000000000000000000000000000000000000000000081526004016106e590611b1b565b87421115610d2a576040517f08c379a00000000000000000000000000000000000000000000000000000000081526004016106e590611a61565b610d34818b611110565b505050505b505050505050565b73ffffffffffffffffffffffffffffffffffffffff9182166000908152602081815260408083209390941682529190915220546bffffffffffffffffffffffff1690565b7fe48329057bfd03d55e49b547132e39cffd9c1820ad7b9d4c5307691425d15adf81565b600360209081526000928352604080842090915290825290205463ffffffff81169064010000000090046bffffffffffffffffffffffff1682565b6000816c010000000000000000000000008410610e2e576040517f08c379a00000000000000000000000000000000000000000000000000000000081526004016106e59190611993565b509192915050565b6000836bffffffffffffffffffffffff16836bffffffffffffffffffffffff1611158290610e91576040517f08c379a00000000000000000000000000000000000000000000000000000000081526004016106e59190611993565b50610e9c8385611d69565b949350505050565b73ffffffffffffffffffffffffffffffffffffffff8316610ef1576040517f08c379a00000000000000000000000000000000000000000000000000000000081526004016106e590611bd5565b73ffffffffffffffffffffffffffffffffffffffff8216610f3e576040517f08c379a00000000000000000000000000000000000000000000000000000000081526004016106e590611b78565b73ffffffffffffffffffffffffffffffffffffffff8316600090815260016020908152604091829020548251606081019093526036808452610f9b936bffffffffffffffffffffffff9092169285929190611df790830139610e36565b73ffffffffffffffffffffffffffffffffffffffff848116600090815260016020908152604080832080547fffffffffffffffffffffffffffffffffffffffff000000000000000000000000166bffffffffffffffffffffffff96871617905592861682529082902054825160608101909352603080845261102d9491909116928592909190611ed4908301396111c8565b73ffffffffffffffffffffffffffffffffffffffff8381166000818152600160205260409081902080547fffffffffffffffffffffffffffffffffffffffff000000000000000000000000166bffffffffffffffffffffffff95909516949094179093559151908516907fddf252ad1be2c89b69c2b068fc378daa952ba7f163c4a11628f55a4df523b3ef906110c4908590611c75565b60405180910390a373ffffffffffffffffffffffffffffffffffffffff80841660009081526002602052604080822054858416835291205461110b92918216911683611239565b505050565b73ffffffffffffffffffffffffffffffffffffffff808316600081815260026020818152604080842080546001845282862054949093528787167fffffffffffffffffffffffff000000000000000000000000000000000000000084168117909155905191909516946bffffffffffffffffffffffff9092169391928592917f3134e8a2e6d97e929a7e54011ea5485d7d196dd5f0ba4d4ef95803e8e3fc257f9190a46111be828483611239565b50505050565b4690565b6000806111d58486611cd5565b9050846bffffffffffffffffffffffff16816bffffffffffffffffffffffff1610158390611230576040517f08c379a00000000000000000000000000000000000000000000000000000000081526004016106e59190611993565b50949350505050565b8173ffffffffffffffffffffffffffffffffffffffff168373ffffffffffffffffffffffffffffffffffffffff161415801561128357506000816bffffffffffffffffffffffff16115b1561110b5773ffffffffffffffffffffffffffffffffffffffff8316156113755773ffffffffffffffffffffffffffffffffffffffff831660009081526004602052604081205463ffffffff1690816112dd57600061133c565b73ffffffffffffffffffffffffffffffffffffffff851660009081526003602052604081209061130e600185611d44565b63ffffffff16815260208101919091526040016000205464010000000090046bffffffffffffffffffffffff165b905060006113638285604051806060016040528060288152602001611eac60289139610e36565b90506113718684848461145a565b5050505b73ffffffffffffffffffffffffffffffffffffffff82161561110b5773ffffffffffffffffffffffffffffffffffffffff821660009081526004602052604081205463ffffffff1690816113ca576000611429565b73ffffffffffffffffffffffffffffffffffffffff84166000908152600360205260408120906113fb600185611d44565b63ffffffff16815260208101919091526040016000205464010000000090046bffffffffffffffffffffffff165b905060006114508285604051806060016040528060278152602001611f41602791396111c8565b9050610d39858484845b600061147e43604051806060016040528060348152602001611e78603491396116f6565b905060008463ffffffff161180156114e5575073ffffffffffffffffffffffffffffffffffffffff8516600090815260036020526040812063ffffffff8316916114c9600188611d44565b63ffffffff908116825260208201929092526040016000205416145b1561157b5773ffffffffffffffffffffffffffffffffffffffff85166000908152600360205260408120839161151c600188611d44565b63ffffffff168152602081019190915260400160002080546bffffffffffffffffffffffff92909216640100000000027fffffffffffffffffffffffffffffffff000000000000000000000000ffffffff90921691909117905561169f565b60408051808201825263ffffffff83811682526bffffffffffffffffffffffff858116602080850191825273ffffffffffffffffffffffffffffffffffffffff8b166000908152600382528681208b86168252909152949094209251835494517fffffffffffffffffffffffffffffffffffffffffffffffffffffffff000000009095169216919091177fffffffffffffffffffffffffffffffff000000000000000000000000ffffffff166401000000009390911692909202919091179055611646846001611cad565b73ffffffffffffffffffffffffffffffffffffffff8616600090815260046020526040902080547fffffffffffffffffffffffffffffffffffffffffffffffffffffffff000000001663ffffffff929092169190911790555b8473ffffffffffffffffffffffffffffffffffffffff167fdec2bacdd2f05b59de34da9b523dff8be42e5e38e818c82fdb0bae774387a72484846040516116e7929190611c8e565b60405180910390a25050505050565b6000816401000000008410610e2e576040517f08c379a00000000000000000000000000000000000000000000000000000000081526004016106e59190611993565b803573ffffffffffffffffffffffffffffffffffffffff811681146106a557600080fd5b60006020828403121561176d578081fd5b610a9282611738565b60008060408385031215611788578081fd5b61179183611738565b915061179f60208401611738565b90509250929050565b6000806000606084860312156117bc578081fd5b6117c584611738565b92506117d360208501611738565b9150604084013590509250925092565b600080604083850312156117f5578182fd5b6117fe83611738565b946020939093013593505050565b60008060008060008060c08789031215611824578182fd5b61182d87611738565b95506020870135945060408701359350606087013560ff81168114611850578283fd5b9598949750929560808101359460a0909101359350915050565b6000806040838503121561187c578182fd5b61188583611738565b9150602083013563ffffffff8116811461189d578182fd5b809150509250929050565b7f190100000000000000000000000000000000000000000000000000000000000081526002810192909252602282015260420190565b73ffffffffffffffffffffffffffffffffffffffff91909116815260200190565b901515815260200190565b90815260200190565b93845273ffffffffffffffffffffffffffffffffffffffff9290921660208401526040830152606082015260800190565b9384526020840192909252604083015273ffffffffffffffffffffffffffffffffffffffff16606082015260800190565b93845260ff9290921660208401526040830152606082015260800190565b6000602080835283518082850152825b818110156119bf578581018301518582016040015282016119a3565b818111156119d05783604083870101525b50601f017fffffffffffffffffffffffffffffffffffffffffffffffffffffffffffffffe016929092016040019392505050565b60208082526026908201527f436f6d703a3a64656c656761746542795369673a20696e76616c69642073696760408201527f6e61747572650000000000000000000000000000000000000000000000000000606082015260800190565b60208082526026908201527f436f6d703a3a64656c656761746542795369673a207369676e6174757265206560408201527f7870697265640000000000000000000000000000000000000000000000000000606082015260800190565b60208082526027908201527f436f6d703a3a6765745072696f72566f7465733a206e6f74207965742064657460408201527f65726d696e656400000000000000000000000000000000000000000000000000606082015260800190565b60208082526022908201527f436f6d703a3a64656c656761746542795369673a20696e76616c6964206e6f6e60408201527f6365000000000000000000000000000000000000000000000000000000000000606082015260800190565b6020808252603a908201527f436f6d703a3a5f7472616e73666572546f6b656e733a2063616e6e6f7420747260408201527f616e7366657220746f20746865207a65726f2061646472657373000000000000606082015260800190565b6020808252603c908201527f436f6d703a3a5f7472616e73666572546f6b656e733a2063616e6e6f7420747260408201527f616e736665722066726f6d20746865207a65726f206164647265737300000000606082015260800190565b63ffffffff91909116815260200190565b63ffffffff9290921682526bffffffffffffffffffffffff16602082015260400190565b60ff91909116815260200190565b6bffffffffffffffffffffffff91909116815260200190565b6bffffffffffffffffffffffff92831681529116602082015260400190565b600063ffffffff808316818516808303821115611ccc57611ccc611dc7565b01949350505050565b60006bffffffffffffffffffffffff808316818516808303821115611ccc57611ccc611dc7565b600063ffffffff80841680611d38577f4e487b710000000000000000000000000000000000000000000000000000000083526012600452602483fd5b92169190910492915050565b600063ffffffff83811690831681811015611d6157611d61611dc7565b039392505050565b60006bffffffffffffffffffffffff83811690831681811015611d6157611d61611dc7565b60007fffffffffffffffffffffffffffffffffffffffffffffffffffffffffffffffff821415611dc057611dc0611dc7565b5060010190565b7f4e487b7100000000000000000000000000000000000000000000000000000000600052601160045260246000fdfe436f6d703a3a5f7472616e73666572546f6b656e733a207472616e7366657220616d6f756e7420657863656564732062616c616e6365436f6d703a3a617070726f76653a20616d6f756e7420657863656564732039362062697473436f6d703a3a7472616e736665723a20616d6f756e7420657863656564732039362062697473436f6d703a3a5f7772697465436865636b706f696e743a20626c6f636b206e756d62657220657863656564732033322062697473436f6d703a3a5f6d6f7665566f7465733a20766f746520616d6f756e7420756e646572666c6f7773436f6d703a3a5f7472616e73666572546f6b656e733a207472616e7366657220616d6f756e74206f766572666c6f7773436f6d703a3a7472616e7366657246726f6d3a207472616e7366657220616d6f756e742065786365656473207370656e64657220616c6c6f77616e6365436f6d703a3a5f6d6f7665566f7465733a20766f746520616d6f756e74206f766572666c6f7773a164736f6c6343000800000a",
  "linkReferences": {},
  "deployedLinkReferences": {}
}