{
    "_format": "hh-sol-artifact-1",
    "contractName": "RolManagerFactory",
    "sourceName": "contracts/RolManagerFactory.sol",
    "abi": [
        {
            "inputs": [
                {
                    "internalType": "address",
                    "name": "registry_",
                    "type": "address"
                }
            ],
            "stateMutability": "nonpayable",
            "type": "constructor"
        },
        {
            "anonymous": false,
            "inputs": [
                {
                    "indexed": true,
                    "internalType": "address",
                    "name": "admin",
                    "type": "address"
                },
                {
                    "indexed": true,
                    "internalType": "address",
                    "name": "rolManagerAddress",
                    "type": "address"
                },
                {
                    "indexed": true,
                    "internalType": "address",
                    "name": "timelockAddress",
                    "type": "address"
                },
                {
                    "indexed": false,
                    "internalType": "string",
                    "name": "safeName",
                    "type": "string"
                }
            ],
            "name": "RolManagerCreated",
            "type": "event"
        },
        {
            "inputs": [],
            "name": "ROL_MANAGER_VERSION",
            "outputs": [
                {
                    "internalType": "uint8",
                    "name": "",
                    "type": "uint8"
                }
            ],
            "stateMutability": "view",
            "type": "function"
        },
        {
            "inputs": [
                {
                    "internalType": "uint256",
                    "name": "delay_",
                    "type": "uint256"
                },
                {
                    "internalType": "string",
                    "name": "safeName",
                    "type": "string"
                }
            ],
            "name": "createSafeGuard",
            "outputs": [
                {
                    "internalType": "address",
                    "name": "",
                    "type": "address"
                }
            ],
            "stateMutability": "nonpayable",
            "type": "function"
        },
        {
            "inputs": [],
            "name": "registry",
            "outputs": [
                {
                    "internalType": "address",
                    "name": "",
                    "type": "address"
                }
            ],
            "stateMutability": "view",
            "type": "function"
        }
    ],
    "bytecode": "0x608060405234801561001057600080fd5b5060405161386138038061386183398101604081905261002f91610054565b600080546001600160a01b0319166001600160a01b0392909216919091179055610082565b600060208284031215610065578081fd5b81516001600160a01b038116811461007b578182fd5b9392505050565b6137d0806100916000396000f3fe608060405234801561001057600080fd5b50600436106100415760003560e01c806324dd67c0146100465780637b1039991461006f578063cafe928114610077575b600080fd5b61005961005436600461024a565b61008c565b6040516100669190610315565b60405180910390f35b61005961020f565b61007f61022b565b604051610066919061041d565b600080308460405161009d90610230565b6100a892919061035d565b604051809103906000f0801580156100c4573d6000803e3d6000fd5b509050600081336040516100d79061023d565b6100e2929190610336565b604051809103906000f0801580156100fe573d6000803e3d6000fd5b506000546040517f07e4959800000000000000000000000000000000000000000000000000000000815291925073ffffffffffffffffffffffffffffffffffffffff16906307e4959890610159908490600190600401610383565b600060405180830381600087803b15801561017357600080fd5b505af1158015610187573d6000803e3d6000fd5b505050508173ffffffffffffffffffffffffffffffffffffffff168173ffffffffffffffffffffffffffffffffffffffff163373ffffffffffffffffffffffffffffffffffffffff167fc5fc551c908ca43c13fb69862fffed47e22110ec04c95bc7a5eebf691f5a1caf876040516101ff91906103ac565b60405180910390a4949350505050565b60005473ffffffffffffffffffffffffffffffffffffffff1681565b600181565b61156c8061045b83390190565b611dfd806119c783390190565b6000806040838503121561025c578182fd5b8235915060208084013567ffffffffffffffff8082111561027b578384fd5b818601915086601f83011261028e578384fd5b8135818111156102a0576102a061042b565b604051847fffffffffffffffffffffffffffffffffffffffffffffffffffffffffffffffe0601f84011682010181811084821117156102e1576102e161042b565b60405281815283820185018910156102f7578586fd5b81858501868301378585838301015280955050505050509250929050565b73ffffffffffffffffffffffffffffffffffffffff91909116815260200190565b73ffffffffffffffffffffffffffffffffffffffff92831681529116602082015260400190565b73ffffffffffffffffffffffffffffffffffffffff929092168252602082015260400190565b73ffffffffffffffffffffffffffffffffffffffff92909216825260ff16602082015260400190565b6000602080835283518082850152825b818110156103d8578581018301518582016040015282016103bc565b818111156103e95783604083870101525b50601f017fffffffffffffffffffffffffffffffffffffffffffffffffffffffffffffffe016929092016040019392505050565b60ff91909116815260200190565b7f4e487b7100000000000000000000000000000000000000000000000000000000600052604160045260246000fdfe608060405234801561001057600080fd5b506040516200156c3803806200156c833981016040819052610031916100a6565b600181101561005b5760405162461bcd60e51b8152600401610052906100de565b60405180910390fd5b61025881111561007d5760405162461bcd60e51b81526004016100529061013b565b600080546001600160a01b0319166001600160a01b039390931692909217909155600255610198565b600080604083850312156100b8578182fd5b82516001600160a01b03811681146100ce578283fd5b6020939093015192949293505050565b60208082526037908201527f54696d656c6f636b3a3a636f6e7374727563746f723a2044656c6179206d757360408201527f7420657863656564206d696e696d756d2064656c61792e000000000000000000606082015260800190565b60208082526038908201527f54696d656c6f636b3a3a73657444656c61793a2044656c6179206d757374206e60408201527f6f7420657863656564206d6178696d756d2064656c61792e0000000000000000606082015260800190565b6113c480620001a86000396000f3fe6080604052600436106100d65760003560e01c80636a42b8f81161007f578063c1a287e211610059578063c1a287e2146101f0578063e177246e14610205578063f2b0653714610225578063f851a44014610252576100dd565b80636a42b8f8146101b15780637d645fab146101c6578063b1b43ae5146101db576100dd565b80633a66f901116100b05780633a66f901146101445780634dd18bf514610171578063591fcdfe14610191576100dd565b80630825f38f146100e25780630e18b6811461010b5780632678224714610122576100dd565b366100dd57005b600080fd5b6100f56100f0366004610bc5565b610267565b6040516101029190610dc6565b60405180910390f35b34801561011757600080fd5b50610120610564565b005b34801561012e57600080fd5b5061013761062d565b6040516101029190610d37565b34801561015057600080fd5b5061016461015f366004610bc5565b610649565b6040516101029190610dbd565b34801561017d57600080fd5b5061012061018c366004610bab565b6107d0565b34801561019d57600080fd5b506101206101ac366004610bc5565b61087e565b3480156101bd57600080fd5b506101646109b2565b3480156101d257600080fd5b506101646109b8565b3480156101e757600080fd5b506101646109be565b3480156101fc57600080fd5b506101646109c3565b34801561021157600080fd5b50610120610220366004610c71565b6109c9565b34801561023157600080fd5b50610245610240366004610c71565b610aac565b6040516101029190610db2565b34801561025e57600080fd5b50610137610ac1565b60005460609073ffffffffffffffffffffffffffffffffffffffff1633146102c4576040517f08c379a00000000000000000000000000000000000000000000000000000000081526004016102bb90610dd9565b60405180910390fd5b600086868686866040516020016102df959493929190610d58565b604080517fffffffffffffffffffffffffffffffffffffffffffffffffffffffffffffffe081840301815291815281516020928301206000818152600390935291205490915060ff1661035e576040517f08c379a00000000000000000000000000000000000000000000000000000000081526004016102bb9061102d565b82610367610add565b101561039f576040517f08c379a00000000000000000000000000000000000000000000000000000000081526004016102bb90610ef0565b6103ab8361012c610ae1565b6103b3610add565b11156103eb576040517f08c379a00000000000000000000000000000000000000000000000000000000081526004016102bb90610e93565b600081815260036020526040902080547fffffffffffffffffffffffffffffffffffffffffffffffffffffffffffffff00169055845160609061042f57508361045b565b858051906020012085604051602001610449929190610cd3565b60405160208183030381529060405290505b6000808973ffffffffffffffffffffffffffffffffffffffff1689846040516104849190610d1b565b60006040518083038185875af1925050503d80600081146104c1576040519150601f19603f3d011682016040523d82523d6000602084013e6104c6565b606091505b509150915081610502576040517f08c379a00000000000000000000000000000000000000000000000000000000081526004016102bb906111a1565b8973ffffffffffffffffffffffffffffffffffffffff16847fa560e3198060a2f10670c1ec5b403077ea6ae93ca8de1c32b451dc1a943cd6e78b8b8b8b60405161054f94939291906112de565b60405180910390a39998505050505050505050565b60015473ffffffffffffffffffffffffffffffffffffffff1633146105b5576040517f08c379a00000000000000000000000000000000000000000000000000000000081526004016102bb9061108a565b60008054337fffffffffffffffffffffffff0000000000000000000000000000000000000000918216178083556001805490921690915560405173ffffffffffffffffffffffffffffffffffffffff909116917f71614071b88dee5e0b2ae578a9dd7b2ebbe9ae832ba419dc0242cd065a290b6c91a2565b60015473ffffffffffffffffffffffffffffffffffffffff1681565b6000805473ffffffffffffffffffffffffffffffffffffffff16331461069b576040517f08c379a00000000000000000000000000000000000000000000000000000000081526004016102bb90611144565b6106af6002546106a9610add565b90610ae1565b8210156106e8576040517f08c379a00000000000000000000000000000000000000000000000000000000081526004016102bb906111fe565b60008686868686604051602001610703959493929190610d58565b604080517fffffffffffffffffffffffffffffffffffffffffffffffffffffffffffffffe081840301815282825280516020918201206000818152600390925291902080547fffffffffffffffffffffffffffffffffffffffffffffffffffffffffffffff00166001179055915073ffffffffffffffffffffffffffffffffffffffff88169082907f76e2796dc3a81d57b0e8504b647febcbeeb5f4af818e164f11eef8131a6a763f906107be908a908a908a908a906112de565b60405180910390a39695505050505050565b333014610809576040517f08c379a00000000000000000000000000000000000000000000000000000000081526004016102bb906110e7565b600180547fffffffffffffffffffffffff00000000000000000000000000000000000000001673ffffffffffffffffffffffffffffffffffffffff83811691909117918290556040519116907f69d78e38a01985fbb1462961809b4b2d65531bc93b2b94037f3334b82ca4a75690600090a250565b60005473ffffffffffffffffffffffffffffffffffffffff1633146108cf576040517f08c379a00000000000000000000000000000000000000000000000000000000081526004016102bb90610e36565b600085858585856040516020016108ea959493929190610d58565b604080517fffffffffffffffffffffffffffffffffffffffffffffffffffffffffffffffe081840301815282825280516020918201206000818152600390925291902080547fffffffffffffffffffffffffffffffffffffffffffffffffffffffffffffff00169055915073ffffffffffffffffffffffffffffffffffffffff87169082907f2fffc091a501fd91bfbff27141450d3acb40fb8e6d8382b243ec7a812a3aaf87906109a29089908990899089906112de565b60405180910390a3505050505050565b60025481565b61025881565b600181565b61012c81565b333014610a02576040517f08c379a00000000000000000000000000000000000000000000000000000000081526004016102bb90611281565b6001811015610a3d576040517f08c379a00000000000000000000000000000000000000000000000000000000081526004016102bb90610f73565b610258811115610a79576040517f08c379a00000000000000000000000000000000000000000000000000000000081526004016102bb90610fd0565b600281905560405181907f948b1f6a42ee138b7e34058ba85a37f716d55ff25ff05a763f15bed6a04c8d2c90600090a250565b60036020526000908152604090205460ff1681565b60005473ffffffffffffffffffffffffffffffffffffffff1681565b4290565b6000610aed828461131b565b9392505050565b600067ffffffffffffffff80841115610b0f57610b0f611388565b60405160207fffffffffffffffffffffffffffffffffffffffffffffffffffffffffffffffe0601f8701168201018181108382111715610b5157610b51611388565b604052848152915081838501861015610b6957600080fd5b8484602083013760006020868301015250509392505050565b803573ffffffffffffffffffffffffffffffffffffffff81168114610ba657600080fd5b919050565b600060208284031215610bbc578081fd5b610aed82610b82565b600080600080600060a08688031215610bdc578081fd5b610be586610b82565b945060208601359350604086013567ffffffffffffffff80821115610c08578283fd5b818801915088601f830112610c1b578283fd5b610c2a89833560208501610af4565b94506060880135915080821115610c3f578283fd5b508601601f81018813610c50578182fd5b610c5f88823560208401610af4565b95989497509295608001359392505050565b600060208284031215610c82578081fd5b5035919050565b60008151808452610ca1816020860160208601611358565b601f017fffffffffffffffffffffffffffffffffffffffffffffffffffffffffffffffe0169290920160200192915050565b60007fffffffff00000000000000000000000000000000000000000000000000000000841682528251610d0d816004850160208701611358565b919091016004019392505050565b60008251610d2d818460208701611358565b9190910192915050565b73ffffffffffffffffffffffffffffffffffffffff91909116815260200190565b600073ffffffffffffffffffffffffffffffffffffffff8716825285602083015260a06040830152610d8d60a0830186610c89565b8281036060840152610d9f8186610c89565b9150508260808301529695505050505050565b901515815260200190565b90815260200190565b600060208252610aed6020830184610c89565b60208082526038908201527f54696d656c6f636b3a3a657865637574655472616e73616374696f6e3a20436160408201527f6c6c206d75737420636f6d652066726f6d2061646d696e2e0000000000000000606082015260800190565b60208082526037908201527f54696d656c6f636b3a3a63616e63656c5472616e73616374696f6e3a2043616c60408201527f6c206d75737420636f6d652066726f6d2061646d696e2e000000000000000000606082015260800190565b60208082526033908201527f54696d656c6f636b3a3a657865637574655472616e73616374696f6e3a20547260408201527f616e73616374696f6e206973207374616c652e00000000000000000000000000606082015260800190565b60208082526045908201527f54696d656c6f636b3a3a657865637574655472616e73616374696f6e3a20547260408201527f616e73616374696f6e206861736e2774207375727061737365642074696d652060608201527f6c6f636b2e000000000000000000000000000000000000000000000000000000608082015260a00190565b60208082526034908201527f54696d656c6f636b3a3a73657444656c61793a2044656c6179206d757374206560408201527f7863656564206d696e696d756d2064656c61792e000000000000000000000000606082015260800190565b60208082526038908201527f54696d656c6f636b3a3a73657444656c61793a2044656c6179206d757374206e60408201527f6f7420657863656564206d6178696d756d2064656c61792e0000000000000000606082015260800190565b6020808252603d908201527f54696d656c6f636b3a3a657865637574655472616e73616374696f6e3a20547260408201527f616e73616374696f6e206861736e2774206265656e207175657565642e000000606082015260800190565b60208082526038908201527f54696d656c6f636b3a3a61636365707441646d696e3a2043616c6c206d75737460408201527f20636f6d652066726f6d2070656e64696e6741646d696e2e0000000000000000606082015260800190565b60208082526038908201527f54696d656c6f636b3a3a73657450656e64696e6741646d696e3a2043616c6c2060408201527f6d75737420636f6d652066726f6d2054696d656c6f636b2e0000000000000000606082015260800190565b60208082526036908201527f54696d656c6f636b3a3a71756575655472616e73616374696f6e3a2043616c6c60408201527f206d75737420636f6d652066726f6d2061646d696e2e00000000000000000000606082015260800190565b6020808252603d908201527f54696d656c6f636b3a3a657865637574655472616e73616374696f6e3a20547260408201527f616e73616374696f6e20657865637574696f6e2072657665727465642e000000606082015260800190565b60208082526049908201527f54696d656c6f636b3a3a71756575655472616e73616374696f6e3a204573746960408201527f6d6174656420657865637574696f6e20626c6f636b206d75737420736174697360608201527f66792064656c61792e0000000000000000000000000000000000000000000000608082015260a00190565b60208082526031908201527f54696d656c6f636b3a3a73657444656c61793a2043616c6c206d75737420636f60408201527f6d652066726f6d2054696d656c6f636b2e000000000000000000000000000000606082015260800190565b6000858252608060208301526112f76080830186610c89565b82810360408401526113098186610c89565b91505082606083015295945050505050565b60008219821115611353577f4e487b710000000000000000000000000000000000000000000000000000000081526011600452602481fd5b500190565b60005b8381101561137357818101518382015260200161135b565b83811115611382576000848401525b50505050565b7f4e487b7100000000000000000000000000000000000000000000000000000000600052604160045260246000fdfea164736f6c6343000800000a60806040523480156200001157600080fd5b5060405162001dfd38038062001dfd83398101604081905262000034916200034f565b6200004f60008051602062001ddd8339815191528062000142565b6200008a7fb09aa5aeb3702cfd50b6b62bc4532604938f21248a27a1d5ca736082b6819cc160008051602062001ddd83398151915262000142565b620000c57fd8aa0f3194971a2a116679f7c2090f6939c8d4e01a2a8d7e41d55e5351469e6360008051602062001ddd83398151915262000142565b620001007febfdca8e46c0b8dacf9989ee613e35727eadd20a1d5e5ad01a53968c7e5fe07a60008051602062001ddd83398151915262000142565b6200011b60008051602062001ddd833981519152826200018e565b50600280546001600160a01b0319166001600160a01b039290921691909117905562000386565b806200014e83620001d1565b60405184907fbd79b86ffe0ab8e8776151514217cd7cacd52c909f66475c3af44e129f0b00ff90600090a460009182526020829052604090912060010155565b620001a58282620001e960201b6200090a1760201c565b6000828152600160209081526040909120620001cc91839062000918620001f9821b17901c565b505050565b6000818152602081905260409020600101545b919050565b620001f5828262000219565b5050565b600062000210836001600160a01b038416620002a3565b90505b92915050565b620002258282620002f2565b620001f5576000828152602081815260408083206001600160a01b03851684529091529020805460ff191660011790556200025f6200031b565b6001600160a01b0316816001600160a01b0316837f2f8788117e7eff1d82e926ec794901d17c78024a50270940304540a733656f0d60405160405180910390a45050565b6000620002b183836200031f565b620002e95750815460018181018455600084815260208082209093018490558454848252828601909352604090209190915562000213565b50600062000213565b6000918252602082815260408084206001600160a01b0393909316845291905290205460ff1690565b3390565b60009081526001919091016020526040902054151590565b80516001600160a01b0381168114620001e457600080fd5b6000806040838503121562000362578182fd5b6200036d8362000337565b91506200037d6020840162000337565b90509250929050565b611a4780620003966000396000f3fe60806040526004361061010e5760003560e01c8063898ee448116100a5578063a217fddf11610074578063d21d19e111610059578063d21d19e1146102c1578063d33219b4146102e1578063d547741f146102f65761010e565b8063a217fddf1461028c578063ca15c873146102a15761010e565b8063898ee448146102155780638f61f4f51461022a5780639010d07c1461023f57806391d148541461026c5761010e565b8063248a9ca3116100e1578063248a9ca3146101955780632f2ff15d146101b557806336568abe146101d5578063591fcdfe146101f55761010e565b806301ffc9a71461011357806302d2ff661461014957806307bd02651461016b5780630825f38f14610180575b600080fd5b34801561011f57600080fd5b5061013361012e366004611448565b610316565b60405161014091906115c0565b60405180910390f35b34801561015557600080fd5b5061015e610374565b60405161014091906115cb565b34801561017757600080fd5b5061015e610398565b61019361018e36600461127b565b6103bc565b005b3480156101a157600080fd5b5061015e6101b03660046113cc565b610619565b3480156101c157600080fd5b506101936101d03660046113fc565b61062e565b3480156101e157600080fd5b506101936101f03660046113fc565b610655565b34801561020157600080fd5b5061019361021036600461127b565b610677565b34801561022157600080fd5b5061015e610724565b34801561023657600080fd5b5061015e610748565b34801561024b57600080fd5b5061025f61025a366004611427565b61076c565b6040516101409190611545565b34801561027857600080fd5b506101336102873660046113fc565b61078d565b34801561029857600080fd5b5061015e6107c3565b3480156102ad57600080fd5b5061015e6102bc3660046113cc565b6107c8565b3480156102cd57600080fd5b506101936102dc3660046112fe565b6107df565b3480156102ed57600080fd5b5061025f6108e4565b34801561030257600080fd5b506101936103113660046113fc565b610900565b60007fffffffff0000000000000000000000000000000000000000000000000000000082167f5a05180f00000000000000000000000000000000000000000000000000000000148061036c575061036c8261093a565b90505b919050565b7febfdca8e46c0b8dacf9989ee613e35727eadd20a1d5e5ad01a53968c7e5fe07a81565b7fd8aa0f3194971a2a116679f7c2090f6939c8d4e01a2a8d7e41d55e5351469e6381565b7fd8aa0f3194971a2a116679f7c2090f6939c8d4e01a2a8d7e41d55e5351469e636103e981610287610990565b610428576040517f08c379a000000000000000000000000000000000000000000000000000000000815260040161041f906116eb565b60405180910390fd5b60008686868686604051602001610443959493929190611566565b604080517fffffffffffffffffffffffffffffffffffffffffffffffffffffffffffffffe08184030181529082905280516020909101206002547ff2b0653700000000000000000000000000000000000000000000000000000000835290925073ffffffffffffffffffffffffffffffffffffffff169063f2b06537906104ce9084906004016115cb565b60206040518083038186803b1580156104e657600080fd5b505afa1580156104fa573d6000803e3d6000fd5b505050506040513d601f19601f8201168201806040525081019061051e91906113a5565b610554576040517f08c379a000000000000000000000000000000000000000000000000000000000815260040161041f906117a5565b60025473ffffffffffffffffffffffffffffffffffffffff16630825f38f875a908a8a8a8a8a6040518863ffffffff1660e01b815260040161059a959493929190611566565b6000604051808303818589803b1580156105b357600080fd5b5088f11580156105c7573d6000803e3d6000fd5b5050505050506040513d6000823e601f3d9081017fffffffffffffffffffffffffffffffffffffffffffffffffffffffffffffffe016820160405261060f9190810190611488565b5050505050505050565b60009081526020819052604090206001015490565b6106388282610994565b60008281526001602052604090206106509082610918565b505050565b61065f82826109de565b60008281526001602052604090206106509082610a54565b7febfdca8e46c0b8dacf9989ee613e35727eadd20a1d5e5ad01a53968c7e5fe07a6106a481610287610990565b6106da576040517f08c379a000000000000000000000000000000000000000000000000000000000815260040161041f906116eb565b600086868686866040516020016106f5959493929190611566565b60405160208183030381529060405280519060200120905061071b818888888888610a76565b50505050505050565b7f95c635045ba2ff79d717ac1815074771bdf7fddb40217415c477a5dc34189cb581565b7fb09aa5aeb3702cfd50b6b62bc4532604938f21248a27a1d5ca736082b6819cc181565b60008281526001602052604081206107849083610bea565b90505b92915050565b60009182526020828152604080842073ffffffffffffffffffffffffffffffffffffffff93909316845291905290205460ff1690565b600081565b600081815260016020526040812061036c90610bf6565b7fb09aa5aeb3702cfd50b6b62bc4532604938f21248a27a1d5ca736082b6819cc161080c81610287610990565b610842576040517f08c379a000000000000000000000000000000000000000000000000000000000815260040161041f906116eb565b6000878787878760405160200161085d959493929190611566565b604051602081830303815290604052805190602001209050610883818989898989610c01565b8773ffffffffffffffffffffffffffffffffffffffff16817f0e838a7e9b5273e72df3b7bd3d174b4d7873197b8c9e93998dc8bc5641ce467989898989896040516108d29594939291906118bc565b60405180910390a35050505050505050565b60025473ffffffffffffffffffffffffffffffffffffffff1681565b61065f8282610d8e565b6109148282610dd0565b5050565b60006107848373ffffffffffffffffffffffffffffffffffffffff8416610e9a565b60007fffffffff0000000000000000000000000000000000000000000000000000000082167f7965db0b00000000000000000000000000000000000000000000000000000000148061036c575061036c82610ee4565b3390565b6109a86109a083610619565b610287610990565b61090a576040517f08c379a000000000000000000000000000000000000000000000000000000000815260040161041f90611631565b6109e6610990565b73ffffffffffffffffffffffffffffffffffffffff168173ffffffffffffffffffffffffffffffffffffffff1614610a4a576040517f08c379a000000000000000000000000000000000000000000000000000000000815260040161041f9061185f565b6109148282610f2e565b60006107848373ffffffffffffffffffffffffffffffffffffffff8416610ff6565b6002546040517ff2b0653700000000000000000000000000000000000000000000000000000000815273ffffffffffffffffffffffffffffffffffffffff9091169063f2b0653790610acc9089906004016115cb565b60206040518083038186803b158015610ae457600080fd5b505afa158015610af8573d6000803e3d6000fd5b505050506040513d601f19601f82011682018060405250810190610b1c91906113a5565b610b52576040517f08c379a000000000000000000000000000000000000000000000000000000000815260040161041f9061168e565b6002546040517f591fcdfe00000000000000000000000000000000000000000000000000000000815273ffffffffffffffffffffffffffffffffffffffff9091169063591fcdfe90610bb09088908890889088908890600401611566565b600060405180830381600087803b158015610bca57600080fd5b505af1158015610bde573d6000803e3d6000fd5b50505050505050505050565b6000610784838361115e565b600061036c826111ea565b6002546040517ff2b0653700000000000000000000000000000000000000000000000000000000815273ffffffffffffffffffffffffffffffffffffffff9091169063f2b0653790610c579089906004016115cb565b60206040518083038186803b158015610c6f57600080fd5b505afa158015610c83573d6000803e3d6000fd5b505050506040513d601f19601f82011682018060405250810190610ca791906113a5565b15610cde576040517f08c379a000000000000000000000000000000000000000000000000000000000815260040161041f90611802565b6002546040517f3a66f90100000000000000000000000000000000000000000000000000000000815273ffffffffffffffffffffffffffffffffffffffff90911690633a66f90190610d3c9088908890889088908890600401611566565b602060405180830381600087803b158015610d5657600080fd5b505af1158015610d6a573d6000803e3d6000fd5b505050506040513d601f19601f8201168201806040525081019061071b91906113e4565b610d9a6109a083610619565b610a4a576040517f08c379a000000000000000000000000000000000000000000000000000000000815260040161041f90611748565b610dda828261078d565b6109145760008281526020818152604080832073ffffffffffffffffffffffffffffffffffffffff85168452909152902080547fffffffffffffffffffffffffffffffffffffffffffffffffffffffffffffff00166001179055610e3c610990565b73ffffffffffffffffffffffffffffffffffffffff168173ffffffffffffffffffffffffffffffffffffffff16837f2f8788117e7eff1d82e926ec794901d17c78024a50270940304540a733656f0d60405160405180910390a45050565b6000610ea683836111ee565b610edc57508154600181810184556000848152602080822090930184905584548482528286019093526040902091909155610787565b506000610787565b7fffffffff0000000000000000000000000000000000000000000000000000000081167f01ffc9a70000000000000000000000000000000000000000000000000000000014919050565b610f38828261078d565b156109145760008281526020818152604080832073ffffffffffffffffffffffffffffffffffffffff85168452909152902080547fffffffffffffffffffffffffffffffffffffffffffffffffffffffffffffff00169055610f98610990565b73ffffffffffffffffffffffffffffffffffffffff168173ffffffffffffffffffffffffffffffffffffffff16837ff6391f5c32d9c69d2a47ea670b442974b53935d1edc7fd64eb21e047a839171b60405160405180910390a45050565b6000818152600183016020526040812054801561115457600061101a600183611995565b855490915060009061102e90600190611995565b9050600086600001828154811061106e577f4e487b7100000000000000000000000000000000000000000000000000000000600052603260045260246000fd5b90600052602060002001549050808760000184815481106110b8577f4e487b7100000000000000000000000000000000000000000000000000000000600052603260045260246000fd5b6000918252602090912001556110cf83600161197d565b60008281526001890160205260409020558654879080611118577f4e487b7100000000000000000000000000000000000000000000000000000000600052603160045260246000fd5b60019003818190600052602060002001600090559055866001016000878152602001908152602001600020600090556001945050505050610787565b6000915050610787565b8154600090821061119b576040517f08c379a000000000000000000000000000000000000000000000000000000000815260040161041f906115d4565b8260000182815481106111d7577f4e487b7100000000000000000000000000000000000000000000000000000000600052603260045260246000fd5b9060005260206000200154905092915050565b5490565b60009081526001919091016020526040902054151590565b803573ffffffffffffffffffffffffffffffffffffffff8116811461036f57600080fd5b600082601f83011261123a578081fd5b813561124d61124882611937565b61190d565b818152846020838601011115611261578283fd5b816020850160208301379081016020019190915292915050565b600080600080600060a08688031215611292578081fd5b61129b86611206565b945060208601359350604086013567ffffffffffffffff808211156112be578283fd5b6112ca89838a0161122a565b945060608801359150808211156112df578283fd5b506112ec8882890161122a565b95989497509295608001359392505050565b60008060008060008060c08789031215611316578081fd5b61131f87611206565b955060208701359450604087013567ffffffffffffffff80821115611342578283fd5b61134e8a838b0161122a565b95506060890135915080821115611363578283fd5b61136f8a838b0161122a565b94506080890135935060a089013591508082111561138b578283fd5b5061139889828a0161122a565b9150509295509295509295565b6000602082840312156113b6578081fd5b815180151581146113c5578182fd5b9392505050565b6000602082840312156113dd578081fd5b5035919050565b6000602082840312156113f5578081fd5b5051919050565b6000806040838503121561140e578182fd5b8235915061141e60208401611206565b90509250929050565b60008060408385031215611439578182fd5b50508035926020909101359150565b600060208284031215611459578081fd5b81357fffffffff00000000000000000000000000000000000000000000000000000000811681146113c5578182fd5b600060208284031215611499578081fd5b815167ffffffffffffffff8111156114af578182fd5b8201601f810184136114bf578182fd5b80516114cd61124882611937565b8181528560208385010111156114e1578384fd5b6114f28260208301602086016119ac565b95945050505050565b600081518084526115138160208601602086016119ac565b601f017fffffffffffffffffffffffffffffffffffffffffffffffffffffffffffffffe0169290920160200192915050565b73ffffffffffffffffffffffffffffffffffffffff91909116815260200190565b600073ffffffffffffffffffffffffffffffffffffffff8716825285602083015260a0604083015261159b60a08301866114fb565b82810360608401526115ad81866114fb565b9150508260808301529695505050505050565b901515815260200190565b90815260200190565b60208082526022908201527f456e756d657261626c655365743a20696e646578206f7574206f6620626f756e60408201527f6473000000000000000000000000000000000000000000000000000000000000606082015260800190565b6020808252602f908201527f416363657373436f6e74726f6c3a2073656e646572206d75737420626520616e60408201527f2061646d696e20746f206772616e740000000000000000000000000000000000606082015260800190565b6020808252603b908201527f526f6c4d616e616765723a3a63616e63656c5472616e73616374696f6e3a207460408201527f72616e73616374696f6e2073686f756c64206265207175657565640000000000606082015260800190565b60208082526026908201527f526f6c4d616e616765723a2073656e646572207265717569726573207065726d60408201527f697373696f6e0000000000000000000000000000000000000000000000000000606082015260800190565b60208082526030908201527f416363657373436f6e74726f6c3a2073656e646572206d75737420626520616e60408201527f2061646d696e20746f207265766f6b6500000000000000000000000000000000606082015260800190565b6020808252603c908201527f526f6c4d616e616765723a3a657865637574655472616e73616374696f6e3a2060408201527f7472616e73616374696f6e2073686f756c642062652071756575656400000000606082015260800190565b6020808252603f908201527f526f6c4d616e616765723a3a71756575655472616e73616374696f6e3a20747260408201527f616e73616374696f6e20616c7265616479207175657565642061742065746100606082015260800190565b6020808252602f908201527f416363657373436f6e74726f6c3a2063616e206f6e6c792072656e6f756e636560408201527f20726f6c657320666f722073656c660000000000000000000000000000000000606082015260800190565b600086825260a060208301526118d560a08301876114fb565b82810360408401526118e781876114fb565b9050846060840152828103608084015261190181856114fb565b98975050505050505050565b60405181810167ffffffffffffffff8111828210171561192f5761192f611a0b565b604052919050565b600067ffffffffffffffff82111561195157611951611a0b565b50601f017fffffffffffffffffffffffffffffffffffffffffffffffffffffffffffffffe01660200190565b60008219821115611990576119906119dc565b500190565b6000828210156119a7576119a76119dc565b500390565b60005b838110156119c75781810151838201526020016119af565b838111156119d6576000848401525b50505050565b7f4e487b7100000000000000000000000000000000000000000000000000000000600052601160045260246000fd5b7f4e487b7100000000000000000000000000000000000000000000000000000000600052604160045260246000fdfea164736f6c6343000800000a95c635045ba2ff79d717ac1815074771bdf7fddb40217415c477a5dc34189cb5a164736f6c6343000800000a",
    "linkReferences": {},
    "deployedLinkReferences": {}
}