{
  "_format": "hh-sol-artifact-1",
  "contractName": "RolManager",
  "sourceName": "contracts/RolManager.sol",
  "abi": [
    {
      "inputs": [
        {
          "internalType": "address",
          "name": "_timelock",
          "type": "address"
        },
        {
          "internalType": "address",
          "name": "_admin",
          "type": "address"
        }
      ],
      "stateMutability": "nonpayable",
      "type": "constructor"
    },
    {
      "anonymous": false,
      "inputs": [
        {
          "indexed": true,
          "internalType": "bytes32",
          "name": "txHash",
          "type": "bytes32"
        },
        {
          "indexed": true,
          "internalType": "address",
          "name": "target",
          "type": "address"
        },
        {
          "indexed": false,
          "internalType": "uint256",
          "name": "value",
          "type": "uint256"
        },
        {
          "indexed": false,
          "internalType": "string",
          "name": "signature",
          "type": "string"
        },
        {
          "indexed": false,
          "internalType": "bytes",
          "name": "data",
          "type": "bytes"
        },
        {
          "indexed": false,
          "internalType": "uint256",
          "name": "eta",
          "type": "uint256"
        },
        {
          "indexed": false,
          "internalType": "string",
          "name": "description",
          "type": "string"
        }
      ],
      "name": "QueueTransaction",
      "type": "event"
    },
    {
      "anonymous": false,
      "inputs": [
        {
          "indexed": true,
          "internalType": "bytes32",
          "name": "role",
          "type": "bytes32"
        },
        {
          "indexed": true,
          "internalType": "bytes32",
          "name": "previousAdminRole",
          "type": "bytes32"
        },
        {
          "indexed": true,
          "internalType": "bytes32",
          "name": "newAdminRole",
          "type": "bytes32"
        }
      ],
      "name": "RoleAdminChanged",
      "type": "event"
    },
    {
      "anonymous": false,
      "inputs": [
        {
          "indexed": true,
          "internalType": "bytes32",
          "name": "role",
          "type": "bytes32"
        },
        {
          "indexed": true,
          "internalType": "address",
          "name": "account",
          "type": "address"
        },
        {
          "indexed": true,
          "internalType": "address",
          "name": "sender",
          "type": "address"
        }
      ],
      "name": "RoleGranted",
      "type": "event"
    },
    {
      "anonymous": false,
      "inputs": [
        {
          "indexed": true,
          "internalType": "bytes32",
          "name": "role",
          "type": "bytes32"
        },
        {
          "indexed": true,
          "internalType": "address",
          "name": "account",
          "type": "address"
        },
        {
          "indexed": true,
          "internalType": "address",
          "name": "sender",
          "type": "address"
        }
      ],
      "name": "RoleRevoked",
      "type": "event"
    },
    {
      "inputs": [],
      "name": "CANCELER_ROLE",
      "outputs": [
        {
          "internalType": "bytes32",
          "name": "",
          "type": "bytes32"
        }
      ],
      "stateMutability": "view",
      "type": "function"
    },
    {
      "inputs": [],
      "name": "DEFAULT_ADMIN_ROLE",
      "outputs": [
        {
          "internalType": "bytes32",
          "name": "",
          "type": "bytes32"
        }
      ],
      "stateMutability": "view",
      "type": "function"
    },
    {
      "inputs": [],
      "name": "EXECUTOR_ROLE",
      "outputs": [
        {
          "internalType": "bytes32",
          "name": "",
          "type": "bytes32"
        }
      ],
      "stateMutability": "view",
      "type": "function"
    },
    {
      "inputs": [],
      "name": "PROPOSER_ROLE",
      "outputs": [
        {
          "internalType": "bytes32",
          "name": "",
          "type": "bytes32"
        }
      ],
      "stateMutability": "view",
      "type": "function"
    },
    {
      "inputs": [],
      "name": "ROLMANAGER_ADMIN_ROLE",
      "outputs": [
        {
          "internalType": "bytes32",
          "name": "",
          "type": "bytes32"
        }
      ],
      "stateMutability": "view",
      "type": "function"
    },
    {
      "inputs": [
        {
          "internalType": "address",
          "name": "target",
          "type": "address"
        },
        {
          "internalType": "uint256",
          "name": "value",
          "type": "uint256"
        },
        {
          "internalType": "string",
          "name": "signature",
          "type": "string"
        },
        {
          "internalType": "bytes",
          "name": "data",
          "type": "bytes"
        },
        {
          "internalType": "uint256",
          "name": "eta",
          "type": "uint256"
        }
      ],
      "name": "cancelTransaction",
      "outputs": [],
      "stateMutability": "nonpayable",
      "type": "function"
    },
    {
      "inputs": [
        {
          "internalType": "address",
          "name": "target",
          "type": "address"
        },
        {
          "internalType": "uint256",
          "name": "_value",
          "type": "uint256"
        },
        {
          "internalType": "string",
          "name": "signature",
          "type": "string"
        },
        {
          "internalType": "bytes",
          "name": "data",
          "type": "bytes"
        },
        {
          "internalType": "uint256",
          "name": "eta",
          "type": "uint256"
        }
      ],
      "name": "executeTransaction",
      "outputs": [],
      "stateMutability": "payable",
      "type": "function"
    },
    {
      "inputs": [
        {
          "internalType": "bytes32",
          "name": "role",
          "type": "bytes32"
        }
      ],
      "name": "getRoleAdmin",
      "outputs": [
        {
          "internalType": "bytes32",
          "name": "",
          "type": "bytes32"
        }
      ],
      "stateMutability": "view",
      "type": "function"
    },
    {
      "inputs": [
        {
          "internalType": "bytes32",
          "name": "role",
          "type": "bytes32"
        },
        {
          "internalType": "uint256",
          "name": "index",
          "type": "uint256"
        }
      ],
      "name": "getRoleMember",
      "outputs": [
        {
          "internalType": "address",
          "name": "",
          "type": "address"
        }
      ],
      "stateMutability": "view",
      "type": "function"
    },
    {
      "inputs": [
        {
          "internalType": "bytes32",
          "name": "role",
          "type": "bytes32"
        }
      ],
      "name": "getRoleMemberCount",
      "outputs": [
        {
          "internalType": "uint256",
          "name": "",
          "type": "uint256"
        }
      ],
      "stateMutability": "view",
      "type": "function"
    },
    {
      "inputs": [
        {
          "internalType": "bytes32",
          "name": "role",
          "type": "bytes32"
        },
        {
          "internalType": "address",
          "name": "account",
          "type": "address"
        }
      ],
      "name": "grantRole",
      "outputs": [],
      "stateMutability": "nonpayable",
      "type": "function"
    },
    {
      "inputs": [
        {
          "internalType": "bytes32",
          "name": "role",
          "type": "bytes32"
        },
        {
          "internalType": "address",
          "name": "account",
          "type": "address"
        }
      ],
      "name": "hasRole",
      "outputs": [
        {
          "internalType": "bool",
          "name": "",
          "type": "bool"
        }
      ],
      "stateMutability": "view",
      "type": "function"
    },
    {
      "inputs": [
        {
          "internalType": "address",
          "name": "target",
          "type": "address"
        },
        {
          "internalType": "uint256",
          "name": "value",
          "type": "uint256"
        },
        {
          "internalType": "string",
          "name": "signature",
          "type": "string"
        },
        {
          "internalType": "bytes",
          "name": "data",
          "type": "bytes"
        },
        {
          "internalType": "uint256",
          "name": "eta",
          "type": "uint256"
        },
        {
          "internalType": "string",
          "name": "description",
          "type": "string"
        }
      ],
      "name": "queueTransaction",
      "outputs": [],
      "stateMutability": "nonpayable",
      "type": "function"
    },
    {
      "inputs": [
        {
          "internalType": "bytes32",
          "name": "role",
          "type": "bytes32"
        },
        {
          "internalType": "address",
          "name": "account",
          "type": "address"
        }
      ],
      "name": "renounceRole",
      "outputs": [],
      "stateMutability": "nonpayable",
      "type": "function"
    },
    {
      "inputs": [
        {
          "internalType": "bytes32",
          "name": "role",
          "type": "bytes32"
        },
        {
          "internalType": "address",
          "name": "account",
          "type": "address"
        }
      ],
      "name": "revokeRole",
      "outputs": [],
      "stateMutability": "nonpayable",
      "type": "function"
    },
    {
      "inputs": [
        {
          "internalType": "bytes4",
          "name": "interfaceId",
          "type": "bytes4"
        }
      ],
      "name": "supportsInterface",
      "outputs": [
        {
          "internalType": "bool",
          "name": "",
          "type": "bool"
        }
      ],
      "stateMutability": "view",
      "type": "function"
    },
    {
      "inputs": [],
      "name": "timelock",
      "outputs": [
        {
          "internalType": "contract ITimelock",
          "name": "",
          "type": "address"
        }
      ],
      "stateMutability": "view",
      "type": "function"
    }
  ],
  "bytecode": "0x60806040523480156200001157600080fd5b5060405162001dfd38038062001dfd83398101604081905262000034916200034f565b6200004f60008051602062001ddd8339815191528062000142565b6200008a7fb09aa5aeb3702cfd50b6b62bc4532604938f21248a27a1d5ca736082b6819cc160008051602062001ddd83398151915262000142565b620000c57fd8aa0f3194971a2a116679f7c2090f6939c8d4e01a2a8d7e41d55e5351469e6360008051602062001ddd83398151915262000142565b620001007febfdca8e46c0b8dacf9989ee613e35727eadd20a1d5e5ad01a53968c7e5fe07a60008051602062001ddd83398151915262000142565b6200011b60008051602062001ddd833981519152826200018e565b50600280546001600160a01b0319166001600160a01b039290921691909117905562000386565b806200014e83620001d1565b60405184907fbd79b86ffe0ab8e8776151514217cd7cacd52c909f66475c3af44e129f0b00ff90600090a460009182526020829052604090912060010155565b620001a58282620001e960201b6200090a1760201c565b6000828152600160209081526040909120620001cc91839062000918620001f9821b17901c565b505050565b6000818152602081905260409020600101545b919050565b620001f5828262000219565b5050565b600062000210836001600160a01b038416620002a3565b90505b92915050565b620002258282620002f2565b620001f5576000828152602081815260408083206001600160a01b03851684529091529020805460ff191660011790556200025f6200031b565b6001600160a01b0316816001600160a01b0316837f2f8788117e7eff1d82e926ec794901d17c78024a50270940304540a733656f0d60405160405180910390a45050565b6000620002b183836200031f565b620002e95750815460018181018455600084815260208082209093018490558454848252828601909352604090209190915562000213565b50600062000213565b6000918252602082815260408084206001600160a01b0393909316845291905290205460ff1690565b3390565b60009081526001919091016020526040902054151590565b80516001600160a01b0381168114620001e457600080fd5b6000806040838503121562000362578182fd5b6200036d8362000337565b91506200037d6020840162000337565b90509250929050565b611a4780620003966000396000f3fe60806040526004361061010e5760003560e01c8063898ee448116100a5578063a217fddf11610074578063d21d19e111610059578063d21d19e1146102c1578063d33219b4146102e1578063d547741f146102f65761010e565b8063a217fddf1461028c578063ca15c873146102a15761010e565b8063898ee448146102155780638f61f4f51461022a5780639010d07c1461023f57806391d148541461026c5761010e565b8063248a9ca3116100e1578063248a9ca3146101955780632f2ff15d146101b557806336568abe146101d5578063591fcdfe146101f55761010e565b806301ffc9a71461011357806302d2ff661461014957806307bd02651461016b5780630825f38f14610180575b600080fd5b34801561011f57600080fd5b5061013361012e366004611448565b610316565b60405161014091906115c0565b60405180910390f35b34801561015557600080fd5b5061015e610374565b60405161014091906115cb565b34801561017757600080fd5b5061015e610398565b61019361018e36600461127b565b6103bc565b005b3480156101a157600080fd5b5061015e6101b03660046113cc565b610619565b3480156101c157600080fd5b506101936101d03660046113fc565b61062e565b3480156101e157600080fd5b506101936101f03660046113fc565b610655565b34801561020157600080fd5b5061019361021036600461127b565b610677565b34801561022157600080fd5b5061015e610724565b34801561023657600080fd5b5061015e610748565b34801561024b57600080fd5b5061025f61025a366004611427565b61076c565b6040516101409190611545565b34801561027857600080fd5b506101336102873660046113fc565b61078d565b34801561029857600080fd5b5061015e6107c3565b3480156102ad57600080fd5b5061015e6102bc3660046113cc565b6107c8565b3480156102cd57600080fd5b506101936102dc3660046112fe565b6107df565b3480156102ed57600080fd5b5061025f6108e4565b34801561030257600080fd5b506101936103113660046113fc565b610900565b60007fffffffff0000000000000000000000000000000000000000000000000000000082167f5a05180f00000000000000000000000000000000000000000000000000000000148061036c575061036c8261093a565b90505b919050565b7febfdca8e46c0b8dacf9989ee613e35727eadd20a1d5e5ad01a53968c7e5fe07a81565b7fd8aa0f3194971a2a116679f7c2090f6939c8d4e01a2a8d7e41d55e5351469e6381565b7fd8aa0f3194971a2a116679f7c2090f6939c8d4e01a2a8d7e41d55e5351469e636103e981610287610990565b610428576040517f08c379a000000000000000000000000000000000000000000000000000000000815260040161041f906116eb565b60405180910390fd5b60008686868686604051602001610443959493929190611566565b604080517fffffffffffffffffffffffffffffffffffffffffffffffffffffffffffffffe08184030181529082905280516020909101206002547ff2b0653700000000000000000000000000000000000000000000000000000000835290925073ffffffffffffffffffffffffffffffffffffffff169063f2b06537906104ce9084906004016115cb565b60206040518083038186803b1580156104e657600080fd5b505afa1580156104fa573d6000803e3d6000fd5b505050506040513d601f19601f8201168201806040525081019061051e91906113a5565b610554576040517f08c379a000000000000000000000000000000000000000000000000000000000815260040161041f906117a5565b60025473ffffffffffffffffffffffffffffffffffffffff16630825f38f875a908a8a8a8a8a6040518863ffffffff1660e01b815260040161059a959493929190611566565b6000604051808303818589803b1580156105b357600080fd5b5088f11580156105c7573d6000803e3d6000fd5b5050505050506040513d6000823e601f3d9081017fffffffffffffffffffffffffffffffffffffffffffffffffffffffffffffffe016820160405261060f9190810190611488565b5050505050505050565b60009081526020819052604090206001015490565b6106388282610994565b60008281526001602052604090206106509082610918565b505050565b61065f82826109de565b60008281526001602052604090206106509082610a54565b7febfdca8e46c0b8dacf9989ee613e35727eadd20a1d5e5ad01a53968c7e5fe07a6106a481610287610990565b6106da576040517f08c379a000000000000000000000000000000000000000000000000000000000815260040161041f906116eb565b600086868686866040516020016106f5959493929190611566565b60405160208183030381529060405280519060200120905061071b818888888888610a76565b50505050505050565b7f95c635045ba2ff79d717ac1815074771bdf7fddb40217415c477a5dc34189cb581565b7fb09aa5aeb3702cfd50b6b62bc4532604938f21248a27a1d5ca736082b6819cc181565b60008281526001602052604081206107849083610bea565b90505b92915050565b60009182526020828152604080842073ffffffffffffffffffffffffffffffffffffffff93909316845291905290205460ff1690565b600081565b600081815260016020526040812061036c90610bf6565b7fb09aa5aeb3702cfd50b6b62bc4532604938f21248a27a1d5ca736082b6819cc161080c81610287610990565b610842576040517f08c379a000000000000000000000000000000000000000000000000000000000815260040161041f906116eb565b6000878787878760405160200161085d959493929190611566565b604051602081830303815290604052805190602001209050610883818989898989610c01565b8773ffffffffffffffffffffffffffffffffffffffff16817f0e838a7e9b5273e72df3b7bd3d174b4d7873197b8c9e93998dc8bc5641ce467989898989896040516108d29594939291906118bc565b60405180910390a35050505050505050565b60025473ffffffffffffffffffffffffffffffffffffffff1681565b61065f8282610d8e565b6109148282610dd0565b5050565b60006107848373ffffffffffffffffffffffffffffffffffffffff8416610e9a565b60007fffffffff0000000000000000000000000000000000000000000000000000000082167f7965db0b00000000000000000000000000000000000000000000000000000000148061036c575061036c82610ee4565b3390565b6109a86109a083610619565b610287610990565b61090a576040517f08c379a000000000000000000000000000000000000000000000000000000000815260040161041f90611631565b6109e6610990565b73ffffffffffffffffffffffffffffffffffffffff168173ffffffffffffffffffffffffffffffffffffffff1614610a4a576040517f08c379a000000000000000000000000000000000000000000000000000000000815260040161041f9061185f565b6109148282610f2e565b60006107848373ffffffffffffffffffffffffffffffffffffffff8416610ff6565b6002546040517ff2b0653700000000000000000000000000000000000000000000000000000000815273ffffffffffffffffffffffffffffffffffffffff9091169063f2b0653790610acc9089906004016115cb565b60206040518083038186803b158015610ae457600080fd5b505afa158015610af8573d6000803e3d6000fd5b505050506040513d601f19601f82011682018060405250810190610b1c91906113a5565b610b52576040517f08c379a000000000000000000000000000000000000000000000000000000000815260040161041f9061168e565b6002546040517f591fcdfe00000000000000000000000000000000000000000000000000000000815273ffffffffffffffffffffffffffffffffffffffff9091169063591fcdfe90610bb09088908890889088908890600401611566565b600060405180830381600087803b158015610bca57600080fd5b505af1158015610bde573d6000803e3d6000fd5b50505050505050505050565b6000610784838361115e565b600061036c826111ea565b6002546040517ff2b0653700000000000000000000000000000000000000000000000000000000815273ffffffffffffffffffffffffffffffffffffffff9091169063f2b0653790610c579089906004016115cb565b60206040518083038186803b158015610c6f57600080fd5b505afa158015610c83573d6000803e3d6000fd5b505050506040513d601f19601f82011682018060405250810190610ca791906113a5565b15610cde576040517f08c379a000000000000000000000000000000000000000000000000000000000815260040161041f90611802565b6002546040517f3a66f90100000000000000000000000000000000000000000000000000000000815273ffffffffffffffffffffffffffffffffffffffff90911690633a66f90190610d3c9088908890889088908890600401611566565b602060405180830381600087803b158015610d5657600080fd5b505af1158015610d6a573d6000803e3d6000fd5b505050506040513d601f19601f8201168201806040525081019061071b91906113e4565b610d9a6109a083610619565b610a4a576040517f08c379a000000000000000000000000000000000000000000000000000000000815260040161041f90611748565b610dda828261078d565b6109145760008281526020818152604080832073ffffffffffffffffffffffffffffffffffffffff85168452909152902080547fffffffffffffffffffffffffffffffffffffffffffffffffffffffffffffff00166001179055610e3c610990565b73ffffffffffffffffffffffffffffffffffffffff168173ffffffffffffffffffffffffffffffffffffffff16837f2f8788117e7eff1d82e926ec794901d17c78024a50270940304540a733656f0d60405160405180910390a45050565b6000610ea683836111ee565b610edc57508154600181810184556000848152602080822090930184905584548482528286019093526040902091909155610787565b506000610787565b7fffffffff0000000000000000000000000000000000000000000000000000000081167f01ffc9a70000000000000000000000000000000000000000000000000000000014919050565b610f38828261078d565b156109145760008281526020818152604080832073ffffffffffffffffffffffffffffffffffffffff85168452909152902080547fffffffffffffffffffffffffffffffffffffffffffffffffffffffffffffff00169055610f98610990565b73ffffffffffffffffffffffffffffffffffffffff168173ffffffffffffffffffffffffffffffffffffffff16837ff6391f5c32d9c69d2a47ea670b442974b53935d1edc7fd64eb21e047a839171b60405160405180910390a45050565b6000818152600183016020526040812054801561115457600061101a600183611995565b855490915060009061102e90600190611995565b9050600086600001828154811061106e577f4e487b7100000000000000000000000000000000000000000000000000000000600052603260045260246000fd5b90600052602060002001549050808760000184815481106110b8577f4e487b7100000000000000000000000000000000000000000000000000000000600052603260045260246000fd5b6000918252602090912001556110cf83600161197d565b60008281526001890160205260409020558654879080611118577f4e487b7100000000000000000000000000000000000000000000000000000000600052603160045260246000fd5b60019003818190600052602060002001600090559055866001016000878152602001908152602001600020600090556001945050505050610787565b6000915050610787565b8154600090821061119b576040517f08c379a000000000000000000000000000000000000000000000000000000000815260040161041f906115d4565b8260000182815481106111d7577f4e487b7100000000000000000000000000000000000000000000000000000000600052603260045260246000fd5b9060005260206000200154905092915050565b5490565b60009081526001919091016020526040902054151590565b803573ffffffffffffffffffffffffffffffffffffffff8116811461036f57600080fd5b600082601f83011261123a578081fd5b813561124d61124882611937565b61190d565b818152846020838601011115611261578283fd5b816020850160208301379081016020019190915292915050565b600080600080600060a08688031215611292578081fd5b61129b86611206565b945060208601359350604086013567ffffffffffffffff808211156112be578283fd5b6112ca89838a0161122a565b945060608801359150808211156112df578283fd5b506112ec8882890161122a565b95989497509295608001359392505050565b60008060008060008060c08789031215611316578081fd5b61131f87611206565b955060208701359450604087013567ffffffffffffffff80821115611342578283fd5b61134e8a838b0161122a565b95506060890135915080821115611363578283fd5b61136f8a838b0161122a565b94506080890135935060a089013591508082111561138b578283fd5b5061139889828a0161122a565b9150509295509295509295565b6000602082840312156113b6578081fd5b815180151581146113c5578182fd5b9392505050565b6000602082840312156113dd578081fd5b5035919050565b6000602082840312156113f5578081fd5b5051919050565b6000806040838503121561140e578182fd5b8235915061141e60208401611206565b90509250929050565b60008060408385031215611439578182fd5b50508035926020909101359150565b600060208284031215611459578081fd5b81357fffffffff00000000000000000000000000000000000000000000000000000000811681146113c5578182fd5b600060208284031215611499578081fd5b815167ffffffffffffffff8111156114af578182fd5b8201601f810184136114bf578182fd5b80516114cd61124882611937565b8181528560208385010111156114e1578384fd5b6114f28260208301602086016119ac565b95945050505050565b600081518084526115138160208601602086016119ac565b601f017fffffffffffffffffffffffffffffffffffffffffffffffffffffffffffffffe0169290920160200192915050565b73ffffffffffffffffffffffffffffffffffffffff91909116815260200190565b600073ffffffffffffffffffffffffffffffffffffffff8716825285602083015260a0604083015261159b60a08301866114fb565b82810360608401526115ad81866114fb565b9150508260808301529695505050505050565b901515815260200190565b90815260200190565b60208082526022908201527f456e756d657261626c655365743a20696e646578206f7574206f6620626f756e60408201527f6473000000000000000000000000000000000000000000000000000000000000606082015260800190565b6020808252602f908201527f416363657373436f6e74726f6c3a2073656e646572206d75737420626520616e60408201527f2061646d696e20746f206772616e740000000000000000000000000000000000606082015260800190565b6020808252603b908201527f526f6c4d616e616765723a3a63616e63656c5472616e73616374696f6e3a207460408201527f72616e73616374696f6e2073686f756c64206265207175657565640000000000606082015260800190565b60208082526026908201527f526f6c4d616e616765723a2073656e646572207265717569726573207065726d60408201527f697373696f6e0000000000000000000000000000000000000000000000000000606082015260800190565b60208082526030908201527f416363657373436f6e74726f6c3a2073656e646572206d75737420626520616e60408201527f2061646d696e20746f207265766f6b6500000000000000000000000000000000606082015260800190565b6020808252603c908201527f526f6c4d616e616765723a3a657865637574655472616e73616374696f6e3a2060408201527f7472616e73616374696f6e2073686f756c642062652071756575656400000000606082015260800190565b6020808252603f908201527f526f6c4d616e616765723a3a71756575655472616e73616374696f6e3a20747260408201527f616e73616374696f6e20616c7265616479207175657565642061742065746100606082015260800190565b6020808252602f908201527f416363657373436f6e74726f6c3a2063616e206f6e6c792072656e6f756e636560408201527f20726f6c657320666f722073656c660000000000000000000000000000000000606082015260800190565b600086825260a060208301526118d560a08301876114fb565b82810360408401526118e781876114fb565b9050846060840152828103608084015261190181856114fb565b98975050505050505050565b60405181810167ffffffffffffffff8111828210171561192f5761192f611a0b565b604052919050565b600067ffffffffffffffff82111561195157611951611a0b565b50601f017fffffffffffffffffffffffffffffffffffffffffffffffffffffffffffffffe01660200190565b60008219821115611990576119906119dc565b500190565b6000828210156119a7576119a76119dc565b500390565b60005b838110156119c75781810151838201526020016119af565b838111156119d6576000848401525b50505050565b7f4e487b7100000000000000000000000000000000000000000000000000000000600052601160045260246000fd5b7f4e487b7100000000000000000000000000000000000000000000000000000000600052604160045260246000fdfea164736f6c6343000800000a95c635045ba2ff79d717ac1815074771bdf7fddb40217415c477a5dc34189cb5",
  "linkReferences": {},
  "deployedLinkReferences": {}
}