{
  "_format": "hh-sol-artifact-1",
  "contractName": "RolManager",
  "sourceName": "contracts/RolManager.sol",
  "abi": [
    {
      "inputs": [
        {
          "internalType": "address",
          "name": "_timelock",
          "type": "address"
        },
        {
          "internalType": "address",
          "name": "_admin",
          "type": "address"
        }
      ],
      "stateMutability": "nonpayable",
      "type": "constructor"
    },
    {
      "anonymous": false,
      "inputs": [
        {
          "indexed": true,
          "internalType": "bytes32",
          "name": "role",
          "type": "bytes32"
        },
        {
          "indexed": true,
          "internalType": "bytes32",
          "name": "previousAdminRole",
          "type": "bytes32"
        },
        {
          "indexed": true,
          "internalType": "bytes32",
          "name": "newAdminRole",
          "type": "bytes32"
        }
      ],
      "name": "RoleAdminChanged",
      "type": "event"
    },
    {
      "anonymous": false,
      "inputs": [
        {
          "indexed": true,
          "internalType": "bytes32",
          "name": "role",
          "type": "bytes32"
        },
        {
          "indexed": true,
          "internalType": "address",
          "name": "account",
          "type": "address"
        },
        {
          "indexed": true,
          "internalType": "address",
          "name": "sender",
          "type": "address"
        }
      ],
      "name": "RoleGranted",
      "type": "event"
    },
    {
      "anonymous": false,
      "inputs": [
        {
          "indexed": true,
          "internalType": "bytes32",
          "name": "role",
          "type": "bytes32"
        },
        {
          "indexed": true,
          "internalType": "address",
          "name": "account",
          "type": "address"
        },
        {
          "indexed": true,
          "internalType": "address",
          "name": "sender",
          "type": "address"
        }
      ],
      "name": "RoleRevoked",
      "type": "event"
    },
    {
      "inputs": [],
      "name": "DEFAULT_ADMIN_ROLE",
      "outputs": [
        {
          "internalType": "bytes32",
          "name": "",
          "type": "bytes32"
        }
      ],
      "stateMutability": "view",
      "type": "function"
    },
    {
      "inputs": [],
      "name": "EXECUTOR_ROLE",
      "outputs": [
        {
          "internalType": "bytes32",
          "name": "",
          "type": "bytes32"
        }
      ],
      "stateMutability": "view",
      "type": "function"
    },
    {
      "inputs": [],
      "name": "PROPOSER_ROLE",
      "outputs": [
        {
          "internalType": "bytes32",
          "name": "",
          "type": "bytes32"
        }
      ],
      "stateMutability": "view",
      "type": "function"
    },
    {
      "inputs": [],
      "name": "ROLMANAGER_ADMIN_ROLE",
      "outputs": [
        {
          "internalType": "bytes32",
          "name": "",
          "type": "bytes32"
        }
      ],
      "stateMutability": "view",
      "type": "function"
    },
    {
      "inputs": [
        {
          "internalType": "address",
          "name": "target",
          "type": "address"
        },
        {
          "internalType": "uint256",
          "name": "value",
          "type": "uint256"
        },
        {
          "internalType": "string",
          "name": "signature",
          "type": "string"
        },
        {
          "internalType": "bytes",
          "name": "data",
          "type": "bytes"
        },
        {
          "internalType": "uint256",
          "name": "eta",
          "type": "uint256"
        }
      ],
      "name": "cancelTransaction",
      "outputs": [],
      "stateMutability": "nonpayable",
      "type": "function"
    },
    {
      "inputs": [
        {
          "internalType": "address",
          "name": "target",
          "type": "address"
        },
        {
          "internalType": "uint256",
          "name": "_value",
          "type": "uint256"
        },
        {
          "internalType": "string",
          "name": "signature",
          "type": "string"
        },
        {
          "internalType": "bytes",
          "name": "data",
          "type": "bytes"
        },
        {
          "internalType": "uint256",
          "name": "eta",
          "type": "uint256"
        }
      ],
      "name": "executeTransaction",
      "outputs": [],
      "stateMutability": "payable",
      "type": "function"
    },
    {
      "inputs": [
        {
          "internalType": "bytes32",
          "name": "role",
          "type": "bytes32"
        }
      ],
      "name": "getRoleAdmin",
      "outputs": [
        {
          "internalType": "bytes32",
          "name": "",
          "type": "bytes32"
        }
      ],
      "stateMutability": "view",
      "type": "function"
    },
    {
      "inputs": [
        {
          "internalType": "bytes32",
          "name": "role",
          "type": "bytes32"
        },
        {
          "internalType": "uint256",
          "name": "index",
          "type": "uint256"
        }
      ],
      "name": "getRoleMember",
      "outputs": [
        {
          "internalType": "address",
          "name": "",
          "type": "address"
        }
      ],
      "stateMutability": "view",
      "type": "function"
    },
    {
      "inputs": [
        {
          "internalType": "bytes32",
          "name": "role",
          "type": "bytes32"
        }
      ],
      "name": "getRoleMemberCount",
      "outputs": [
        {
          "internalType": "uint256",
          "name": "",
          "type": "uint256"
        }
      ],
      "stateMutability": "view",
      "type": "function"
    },
    {
      "inputs": [
        {
          "internalType": "bytes32",
          "name": "role",
          "type": "bytes32"
        },
        {
          "internalType": "address",
          "name": "account",
          "type": "address"
        }
      ],
      "name": "grantRole",
      "outputs": [],
      "stateMutability": "nonpayable",
      "type": "function"
    },
    {
      "inputs": [
        {
          "internalType": "bytes32",
          "name": "role",
          "type": "bytes32"
        },
        {
          "internalType": "address",
          "name": "account",
          "type": "address"
        }
      ],
      "name": "hasRole",
      "outputs": [
        {
          "internalType": "bool",
          "name": "",
          "type": "bool"
        }
      ],
      "stateMutability": "view",
      "type": "function"
    },
    {
      "inputs": [
        {
          "internalType": "address",
          "name": "target",
          "type": "address"
        },
        {
          "internalType": "uint256",
          "name": "value",
          "type": "uint256"
        },
        {
          "internalType": "string",
          "name": "signature",
          "type": "string"
        },
        {
          "internalType": "bytes",
          "name": "data",
          "type": "bytes"
        },
        {
          "internalType": "uint256",
          "name": "eta",
          "type": "uint256"
        }
      ],
      "name": "queueTransaction",
      "outputs": [],
      "stateMutability": "nonpayable",
      "type": "function"
    },
    {
      "inputs": [
        {
          "internalType": "bytes32",
          "name": "role",
          "type": "bytes32"
        },
        {
          "internalType": "address",
          "name": "account",
          "type": "address"
        }
      ],
      "name": "renounceRole",
      "outputs": [],
      "stateMutability": "nonpayable",
      "type": "function"
    },
    {
      "inputs": [
        {
          "internalType": "bytes32",
          "name": "role",
          "type": "bytes32"
        },
        {
          "internalType": "address",
          "name": "account",
          "type": "address"
        }
      ],
      "name": "revokeRole",
      "outputs": [],
      "stateMutability": "nonpayable",
      "type": "function"
    },
    {
      "inputs": [
        {
          "internalType": "bytes4",
          "name": "interfaceId",
          "type": "bytes4"
        }
      ],
      "name": "supportsInterface",
      "outputs": [
        {
          "internalType": "bool",
          "name": "",
          "type": "bool"
        }
      ],
      "stateMutability": "view",
      "type": "function"
    },
    {
      "inputs": [],
      "name": "timelock",
      "outputs": [
        {
          "internalType": "contract TimelockInterface",
          "name": "",
          "type": "address"
        }
      ],
      "stateMutability": "view",
      "type": "function"
    }
  ],
  "bytecode": "0x60806040523480156200001157600080fd5b5060405162001c2b38038062001c2b833981016040819052620000349162000314565b6200004f60008051602062001c0b8339815191528062000107565b6200008a7fb09aa5aeb3702cfd50b6b62bc4532604938f21248a27a1d5ca736082b6819cc160008051602062001c0b83398151915262000107565b620000c57fd8aa0f3194971a2a116679f7c2090f6939c8d4e01a2a8d7e41d55e5351469e6360008051602062001c0b83398151915262000107565b620000e060008051602062001c0b8339815191528262000153565b50600280546001600160a01b0319166001600160a01b03929092169190911790556200034b565b80620001138362000196565b60405184907fbd79b86ffe0ab8e8776151514217cd7cacd52c909f66475c3af44e129f0b00ff90600090a460009182526020829052604090912060010155565b6200016a8282620001ae60201b620008551760201c565b60008281526001602090815260409091206200019191839062000863620001be821b17901c565b505050565b6000818152602081905260409020600101545b919050565b620001ba8282620001de565b5050565b6000620001d5836001600160a01b03841662000268565b90505b92915050565b620001ea8282620002b7565b620001ba576000828152602081815260408083206001600160a01b03851684529091529020805460ff1916600117905562000224620002e0565b6001600160a01b0316816001600160a01b0316837f2f8788117e7eff1d82e926ec794901d17c78024a50270940304540a733656f0d60405160405180910390a45050565b6000620002768383620002e4565b620002ae57508154600181810184556000848152602080822090930184905584548482528286019093526040902091909155620001d8565b506000620001d8565b6000918252602082815260408084206001600160a01b0393909316845291905290205460ff1690565b3390565b60009081526001919091016020526040902054151590565b80516001600160a01b0381168114620001a957600080fd5b6000806040838503121562000327578182fd5b6200033283620002fc565b91506200034260208401620002fc565b90509250929050565b6118b0806200035b6000396000f3fe6080604052600436106100f35760003560e01c8063898ee4481161008a578063a217fddf11610059578063a217fddf1461027c578063ca15c87314610291578063d33219b4146102b1578063d547741f146102c6576100f3565b8063898ee448146102055780638f61f4f51461021a5780639010d07c1461022f57806391d148541461025c576100f3565b80632f2ff15d116100c65780632f2ff15d1461018557806336568abe146101a55780633a66f901146101c5578063591fcdfe146101e5576100f3565b806301ffc9a7146100f857806307bd02651461012e5780630825f38f14610150578063248a9ca314610165575b600080fd5b34801561010457600080fd5b50610118610113366004611302565b6102e6565b604051610125919061147a565b60405180910390f35b34801561013a57600080fd5b50610143610344565b6040516101259190611485565b61016361015e3660046111b3565b610368565b005b34801561017157600080fd5b50610143610180366004611286565b6105c5565b34801561019157600080fd5b506101636101a03660046112b6565b6105da565b3480156101b157600080fd5b506101636101c03660046112b6565b610601565b3480156101d157600080fd5b506101636101e03660046111b3565b610623565b3480156101f157600080fd5b506101636102003660046111b3565b6106d0565b34801561021157600080fd5b50610143610774565b34801561022657600080fd5b50610143610798565b34801561023b57600080fd5b5061024f61024a3660046112e1565b6107bc565b60405161012591906113ff565b34801561026857600080fd5b506101186102773660046112b6565b6107dd565b34801561028857600080fd5b50610143610813565b34801561029d57600080fd5b506101436102ac366004611286565b610818565b3480156102bd57600080fd5b5061024f61082f565b3480156102d257600080fd5b506101636102e13660046112b6565b61084b565b60007fffffffff0000000000000000000000000000000000000000000000000000000082167f5a05180f00000000000000000000000000000000000000000000000000000000148061033c575061033c82610885565b90505b919050565b7fd8aa0f3194971a2a116679f7c2090f6939c8d4e01a2a8d7e41d55e5351469e6381565b7fd8aa0f3194971a2a116679f7c2090f6939c8d4e01a2a8d7e41d55e5351469e63610395816102776108db565b6103d4576040517f08c379a00000000000000000000000000000000000000000000000000000000081526004016103cb906115a5565b60405180910390fd5b600086868686866040516020016103ef959493929190611420565b604080517fffffffffffffffffffffffffffffffffffffffffffffffffffffffffffffffe08184030181529082905280516020909101206002547ff2b0653700000000000000000000000000000000000000000000000000000000835290925073ffffffffffffffffffffffffffffffffffffffff169063f2b065379061047a908490600401611485565b60206040518083038186803b15801561049257600080fd5b505afa1580156104a6573d6000803e3d6000fd5b505050506040513d601f19601f820116820180604052508101906104ca919061125f565b610500576040517f08c379a00000000000000000000000000000000000000000000000000000000081526004016103cb9061165f565b60025473ffffffffffffffffffffffffffffffffffffffff16630825f38f875a908a8a8a8a8a6040518863ffffffff1660e01b8152600401610546959493929190611420565b6000604051808303818589803b15801561055f57600080fd5b5088f1158015610573573d6000803e3d6000fd5b5050505050506040513d6000823e601f3d9081017fffffffffffffffffffffffffffffffffffffffffffffffffffffffffffffffe01682016040526105bb9190810190611342565b5050505050505050565b60009081526020819052604090206001015490565b6105e482826108df565b60008281526001602052604090206105fc9082610863565b505050565b61060b8282610929565b60008281526001602052604090206105fc908261099f565b7fb09aa5aeb3702cfd50b6b62bc4532604938f21248a27a1d5ca736082b6819cc1610650816102776108db565b610686576040517f08c379a00000000000000000000000000000000000000000000000000000000081526004016103cb906115a5565b600086868686866040516020016106a1959493929190611420565b6040516020818303038152906040528051906020012090506106c78188888888886109c1565b50505050505050565b7f95c635045ba2ff79d717ac1815074771bdf7fddb40217415c477a5dc34189cb56106fd816102776108db565b610733576040517f08c379a00000000000000000000000000000000000000000000000000000000081526004016103cb906115a5565b6000868686868660405160200161074e959493929190611420565b6040516020818303038152906040528051906020012090506106c7818888888888610b4e565b7f95c635045ba2ff79d717ac1815074771bdf7fddb40217415c477a5dc34189cb581565b7fb09aa5aeb3702cfd50b6b62bc4532604938f21248a27a1d5ca736082b6819cc181565b60008281526001602052604081206107d49083610cc2565b90505b92915050565b60009182526020828152604080842073ffffffffffffffffffffffffffffffffffffffff93909316845291905290205460ff1690565b600081565b600081815260016020526040812061033c90610cce565b60025473ffffffffffffffffffffffffffffffffffffffff1681565b61060b8282610cd9565b61085f8282610d1b565b5050565b60006107d48373ffffffffffffffffffffffffffffffffffffffff8416610de5565b60007fffffffff0000000000000000000000000000000000000000000000000000000082167f7965db0b00000000000000000000000000000000000000000000000000000000148061033c575061033c82610e2f565b3390565b6108f36108eb836105c5565b6102776108db565b610855576040517f08c379a00000000000000000000000000000000000000000000000000000000081526004016103cb906114eb565b6109316108db565b73ffffffffffffffffffffffffffffffffffffffff168173ffffffffffffffffffffffffffffffffffffffff1614610995576040517f08c379a00000000000000000000000000000000000000000000000000000000081526004016103cb90611719565b61085f8282610e79565b60006107d48373ffffffffffffffffffffffffffffffffffffffff8416610f41565b6002546040517ff2b0653700000000000000000000000000000000000000000000000000000000815273ffffffffffffffffffffffffffffffffffffffff9091169063f2b0653790610a17908990600401611485565b60206040518083038186803b158015610a2f57600080fd5b505afa158015610a43573d6000803e3d6000fd5b505050506040513d601f19601f82011682018060405250810190610a67919061125f565b15610a9e576040517f08c379a00000000000000000000000000000000000000000000000000000000081526004016103cb906116bc565b6002546040517f3a66f90100000000000000000000000000000000000000000000000000000000815273ffffffffffffffffffffffffffffffffffffffff90911690633a66f90190610afc9088908890889088908890600401611420565b602060405180830381600087803b158015610b1657600080fd5b505af1158015610b2a573d6000803e3d6000fd5b505050506040513d601f19601f820116820180604052508101906106c7919061129e565b6002546040517ff2b0653700000000000000000000000000000000000000000000000000000000815273ffffffffffffffffffffffffffffffffffffffff9091169063f2b0653790610ba4908990600401611485565b60206040518083038186803b158015610bbc57600080fd5b505afa158015610bd0573d6000803e3d6000fd5b505050506040513d601f19601f82011682018060405250810190610bf4919061125f565b610c2a576040517f08c379a00000000000000000000000000000000000000000000000000000000081526004016103cb90611548565b6002546040517f591fcdfe00000000000000000000000000000000000000000000000000000000815273ffffffffffffffffffffffffffffffffffffffff9091169063591fcdfe90610c889088908890889088908890600401611420565b600060405180830381600087803b158015610ca257600080fd5b505af1158015610cb6573d6000803e3d6000fd5b50505050505050505050565b60006107d483836110a9565b600061033c82611135565b610ce56108eb836105c5565b610995576040517f08c379a00000000000000000000000000000000000000000000000000000000081526004016103cb90611602565b610d2582826107dd565b61085f5760008281526020818152604080832073ffffffffffffffffffffffffffffffffffffffff85168452909152902080547fffffffffffffffffffffffffffffffffffffffffffffffffffffffffffffff00166001179055610d876108db565b73ffffffffffffffffffffffffffffffffffffffff168173ffffffffffffffffffffffffffffffffffffffff16837f2f8788117e7eff1d82e926ec794901d17c78024a50270940304540a733656f0d60405160405180910390a45050565b6000610df18383611139565b610e27575081546001818101845560008481526020808220909301849055845484825282860190935260409020919091556107d7565b5060006107d7565b7fffffffff0000000000000000000000000000000000000000000000000000000081167f01ffc9a70000000000000000000000000000000000000000000000000000000014919050565b610e8382826107dd565b1561085f5760008281526020818152604080832073ffffffffffffffffffffffffffffffffffffffff85168452909152902080547fffffffffffffffffffffffffffffffffffffffffffffffffffffffffffffff00169055610ee36108db565b73ffffffffffffffffffffffffffffffffffffffff168173ffffffffffffffffffffffffffffffffffffffff16837ff6391f5c32d9c69d2a47ea670b442974b53935d1edc7fd64eb21e047a839171b60405160405180910390a45050565b6000818152600183016020526040812054801561109f576000610f656001836117fe565b8554909150600090610f79906001906117fe565b90506000866000018281548110610fb9577f4e487b7100000000000000000000000000000000000000000000000000000000600052603260045260246000fd5b9060005260206000200154905080876000018481548110611003577f4e487b7100000000000000000000000000000000000000000000000000000000600052603260045260246000fd5b60009182526020909120015561101a8360016117e6565b60008281526001890160205260409020558654879080611063577f4e487b7100000000000000000000000000000000000000000000000000000000600052603160045260246000fd5b600190038181906000526020600020016000905590558660010160008781526020019081526020016000206000905560019450505050506107d7565b60009150506107d7565b815460009082106110e6576040517f08c379a00000000000000000000000000000000000000000000000000000000081526004016103cb9061148e565b826000018281548110611122577f4e487b7100000000000000000000000000000000000000000000000000000000600052603260045260246000fd5b9060005260206000200154905092915050565b5490565b60009081526001919091016020526040902054151590565b600061116461115f846117a0565b611776565b905082815283838301111561117857600080fd5b828260208301376000602084830101529392505050565b803573ffffffffffffffffffffffffffffffffffffffff8116811461033f57600080fd5b600080600080600060a086880312156111ca578081fd5b6111d38661118f565b945060208601359350604086013567ffffffffffffffff808211156111f6578283fd5b818801915088601f830112611209578283fd5b61121889833560208501611151565b9450606088013591508082111561122d578283fd5b508601601f8101881361123e578182fd5b61124d88823560208401611151565b95989497509295608001359392505050565b600060208284031215611270578081fd5b8151801515811461127f578182fd5b9392505050565b600060208284031215611297578081fd5b5035919050565b6000602082840312156112af578081fd5b5051919050565b600080604083850312156112c8578182fd5b823591506112d86020840161118f565b90509250929050565b600080604083850312156112f3578182fd5b50508035926020909101359150565b600060208284031215611313578081fd5b81357fffffffff000000000000000000000000000000000000000000000000000000008116811461127f578182fd5b600060208284031215611353578081fd5b815167ffffffffffffffff811115611369578182fd5b8201601f81018413611379578182fd5b805161138761115f826117a0565b81815285602083850101111561139b578384fd5b6113ac826020830160208601611815565b95945050505050565b600081518084526113cd816020860160208601611815565b601f017fffffffffffffffffffffffffffffffffffffffffffffffffffffffffffffffe0169290920160200192915050565b73ffffffffffffffffffffffffffffffffffffffff91909116815260200190565b600073ffffffffffffffffffffffffffffffffffffffff8716825285602083015260a0604083015261145560a08301866113b5565b828103606084015261146781866113b5565b9150508260808301529695505050505050565b901515815260200190565b90815260200190565b60208082526022908201527f456e756d657261626c655365743a20696e646578206f7574206f6620626f756e60408201527f6473000000000000000000000000000000000000000000000000000000000000606082015260800190565b6020808252602f908201527f416363657373436f6e74726f6c3a2073656e646572206d75737420626520616e60408201527f2061646d696e20746f206772616e740000000000000000000000000000000000606082015260800190565b6020808252603b908201527f526f6c4d616e616765723a3a63616e63656c5472616e73616374696f6e3a207460408201527f72616e73616374696f6e2073686f756c64206265207175657565640000000000606082015260800190565b60208082526026908201527f526f6c4d616e616765723a2073656e646572207265717569726573207065726d60408201527f697373696f6e0000000000000000000000000000000000000000000000000000606082015260800190565b60208082526030908201527f416363657373436f6e74726f6c3a2073656e646572206d75737420626520616e60408201527f2061646d696e20746f207265766f6b6500000000000000000000000000000000606082015260800190565b6020808252603c908201527f526f6c4d616e616765723a3a657865637574655472616e73616374696f6e3a2060408201527f7472616e73616374696f6e2073686f756c642062652071756575656400000000606082015260800190565b6020808252603f908201527f526f6c4d616e616765723a3a71756575655472616e73616374696f6e3a20747260408201527f616e73616374696f6e20616c7265616479207175657565642061742065746100606082015260800190565b6020808252602f908201527f416363657373436f6e74726f6c3a2063616e206f6e6c792072656e6f756e636560408201527f20726f6c657320666f722073656c660000000000000000000000000000000000606082015260800190565b60405181810167ffffffffffffffff8111828210171561179857611798611874565b604052919050565b600067ffffffffffffffff8211156117ba576117ba611874565b50601f017fffffffffffffffffffffffffffffffffffffffffffffffffffffffffffffffe01660200190565b600082198211156117f9576117f9611845565b500190565b60008282101561181057611810611845565b500390565b60005b83811015611830578181015183820152602001611818565b8381111561183f576000848401525b50505050565b7f4e487b7100000000000000000000000000000000000000000000000000000000600052601160045260246000fd5b7f4e487b7100000000000000000000000000000000000000000000000000000000600052604160045260246000fdfea164736f6c6343000800000a95c635045ba2ff79d717ac1815074771bdf7fddb40217415c477a5dc34189cb5",
  "linkReferences": {},
  "deployedLinkReferences": {}
}